:020000040800F2
:10000000000002204D3B0108F5E8000831E9000836
:1000100045E9000849E900084DE900080000000032
:1000200000000000000000000000000001C6000801
:1000300051E900080000000091C6000855E90008D9
:10004000A13B0108A13B0108A13B0108A13B01081C
:10005000A13B0108A13B010839EB0008A13B0108C5
:1000600041EB000849EB000851EB000859E9000892
:10007000A13B010865E90008A13B010871E90008FE
:100080007DE90008A13B010845EA000889E900086C
:1000900095E90008A1E90008ADE9000859EB00085E
:1000A000A13B0108F9EA0008A13B0108A13B0108B6
:1000B000A13B0108A13B0108A13B010821EB00087D
:1000C0002DEB0008A13B0108A13B0108A13B010861
:1000D000A13B0108A13B0108A13B0108A13B01088C
:1000E00081EB0008A13B0108A13B0108A13B0108ED
:1000F0000DEB0008B9E90008A13B0108A13B01088C
:10010000A13B0108A13B0108D9EA0008D5E9000894
:10011000E1E90008A13B0108A13B0108A13B01085E
:10012000A13B0108A13B0108A13B0108A13B01083B
:10013000A13B01080000000000000000A13B0108F5
:10014000A13B0108A13B0108A13B0108EDE9000822
:10015000A13B0108A13B0108A13B0108A13B01080B
:10016000A13B0108A13B0108A13B0108A13B0108FB
:10017000A13B0108A13B01080000000000000000B5
:08018000A13B0108A13B0108AD
:1001C0000348044B834202D0034B03B118477047E6
:1001D000F8050020F8050020000000000548064B47
:1001E0001B1AD90F01EBA301491002D0034B03B135
:1001F00018477047F8050020F805002000000000AF
:1002000010B5064C237843B9FFF7DAFF044B13B15E
:100210000448AFF300800123237010BDF8050020CF
:1002200000000000B4BB020808B5044B1BB1044930
:100230000448AFF30080BDE80840CFE700000000AD
:10024000FC050020B4BB020808B52DED028BF0EED2
:10025000408AB0EE608A00F01BF8F4EE488AF1EEB6
:1002600010FA06D6DFED098AB4EE688AF1EE10FACC
:1002700002D0BDEC028B08BD00F034FE88EEA80A67
:10028000BDEC028B2123036008BD00BF000000000D
:1002900030B583B0CDED010A019A22F0004E0EF187
:1002A000FF33B3F1FF4F42D210EE104A24F000406A
:1002B000B0F1FF4F3BD270453FDB04F000413ED030
:1002C00014F0FF4F02F0FF4558D14FEA002C6FF0B9
:1002D0007D034FEA4C0CBCF1000F03F1FF33F8DC57
:1002E000002D5CD14FEA0E226FF07D0C52000CF114
:1002F000FF3CFBD513F17E0F63DA6FF07D02D21A5B
:1003000090406FF07D02A2EB0C020EFA02F2B3EB0A
:100310000C0305D11AE012D04FEA4E00013B15D074
:10032000A0EB020EBEF1000FF5DA4000F6E7DDEDBE
:10033000017A60EE277A87EEA70A03B030BD234B1F
:1003400003EB517393ED000A03B030BD831A48BF2D
:1003500003461BB9F3E75B000CF1FF3CB3F5000F5C
:10036000F9DB1CF17E0F23DBA3F500030CF17F0CFE
:100370000B4343EACC5300EE103ADEE7C3157F3B54
:10038000002DAFD04FEAEE5EC4F31604AEF17F0C41
:1003900044F40000C2F3160242F40002B7E76FF023
:1003A0007D044FEAEE5EE41AAEF17F0CA040F1E767
:1003B0006FF07D02A2EB0C0213410B4300EE103AEA
:1003C000BBE7C4F3160444F400009AE794BC0208A7
:1003D00008B52DED028BF0EE408AB0EE608A00F099
:1003E00085F820B9B0EE480ABDEC028B08BDB0EE2E
:1003F000480A00F07BF820B1F4EEC88AF1EE10FA5A
:10040000F0DDB0EE680ABDEC028B08BD10EE103ACC
:10041000C3F3C7527F3A162A194615DC002A0CDBB3
:100420000C481041184205D04FF4800313410B448F
:1004300023EA000300EE103A7047013203F0004354
:10044000F8D143F07E53F5E7802AF3D130EE000A6D
:10045000704700BFFFFF7F0010EE102AC2F3C753A2
:100460007F3B162B22F0004129DC002B104618DBC5
:100470001A4919410A4221D0DFED197A70EE277A24
:10048000F5EEC07AF1EE10FA18DD002A04DA4FF426
:10049000000242FA03F3184420EA010300EE103A86
:1004A0007047DFED0F7A70EE277AF5EEC07AF1EE45
:1004B00010FA03DD002A08DB9FED0A0A7047B1F14C
:1004C000FF4FFBD330EE000A7047DFED077A0029BB
:1004D000BFEE000A08BFB0EE670A7047FFFF7F005B
:1004E000CAF24971000000000000008010EE103ACE
:1004F00033F000400ED0A0F50003B3F1FE4F0DD352
:10050000074B421E9A4207D9A0F1FF40B0FA80F093
:10051000400970470220704703207047042070474D
:10052000FEFF7F0010B4044C03460A4620685DF8C5
:10053000044B194602F03ABD0000002000B5054BFF
:1005400083B0014601AA186802F030FD03B05DF8DF
:1005500004FB00BF0000002011F0FF01034600F083
:10056000030239D08ABB026810B501EB012E0EEBF5
:100570000E4E8EEA0204A2F1013323EA0203A4F133
:10058000013222EA0402134313F0803F0FD150F8E6
:10059000044F84EA0E0CA4F10133ACF1013223EADA
:1005A000040322EA0C02134313F0803FEFD00378D8
:1005B00023B936E010F8013F002B32D09942F9D12F
:1005C00010BD8A4228D09A0729D01A7818460133DC
:1005D000002AF6D110467047CAB90268A2F1013369
:1005E00023EA020313F0803F08D150F8042FA2F150
:1005F000013323EA020313F0803FF6D003785BB1A6
:1006000010F8013F002BFBD17047990705D0184621
:1006100013F8012B002AF8D170471846DDE7184679
:10062000A1E7184610BD00BF00B50B4C2568144665
:10063000EE681A4685B003460D464CB10749009551
:10064000CDE901143046064902F09CFC00F0A8FAFE
:1006500004490C46F3E700BF0000002060D6020802
:1006600070D60208D0C1020808B513460022FFF771
:10067000DBFF00BF2DE9F047074649480E463546E7
:1006800016F801EB10F80EC01CF0080CF7D1BEF103
:100690002D0F5AD0BEF12B0F03BF96F800E0644631
:1006A000AE1C64464BB9BEF1300F5CD00A23DFF8B4
:1006B000F4804FF0050A99460AE0102B4AD04FF01B
:1006C000FF38B8FBF3F803FB08FA6FEA0A0A994609
:1006D0000025284605E02CD009FB00C0012516F8AE
:1006E00001EBAEF1300CBCF1090F06D9AEF1410CB3
:1006F000BCF1190F0BD8AEF1370C634510DDB5F125
:10070000FF3FECD04045E6D94FF0FF35E7E7AEF1CB
:10071000610CBCF1190F03D8AEF1570C6345EEDC48
:100720006B1C0BD004B140420AB165B91160BDE841
:10073000F087D445D0DD4FF0FF35D0E722233B6072
:100740002846002AF3D0711EF0E796F800E0012455
:10075000AE1CA7E7BEF1300F11D04FF00F0A6FF0BB
:1007600070489946B4E7337803F0DF03582B0BD079
:1007700008234FF0070A6FF060489946A8E73078E1
:1007800000F0DF005828E8D14FF0100996F801E09A
:100790004FF00F0A02366FF070484B4698E700BFE3
:1007A0009DBC02089999991964E700BF10B4044CE4
:1007B0008446134620685DF8044B0A46614659E7B3
:1007C0000000002010B4044C8446134620685DF8F5
:1007D000044B0A4661464DE70000002070B50F4B00
:1007E0000F4DAB42A3EB050607D0B610002455F819
:1007F000043B01349847A642F9D82BF0DBF9094DA8
:10080000094B5E1BAB424FEAA60606D0002455F802
:10081000043B01349847A642F9D870BDFCB00308E8
:10082000FCB00308FCB0030820B103080EB470B597
:100830009DB021AC00254FF4017254F8046BADF863
:1008400014201B950290069000F0BAF90B4B0B9305
:100850000B4B03904FF6FF710790ADF81610186818
:100860000F953246234602A91495019406F0B4F878
:100870001DB0BDE8704003B0704700BF715B000859
:10088000000000200CB4F0B59DB022AC00254FF460
:1008900001730646084654F8047BADF81430029103
:1008A00006911B9500F08CF90346039307930A4BBE
:1008B0000B934FF6FF73ADF816303A463046234699
:1008C00002A90F951495019406F086F81DB0BDE8B5
:1008D000F04002B0704700BF715B0008036A2DE969
:1008E000F041846880460E46002B3BD0A3891B074D
:1008F00017D52369ABB1013EA36816F8015F013B30
:10090000A360EDB1002B07DAA7699F422246294672
:10091000404610DC0A2D0ED023685A1C22601D7040
:10092000EAE72146404601F0CDFF0028E3D04FF032
:10093000FF30BDE8F08103F0F7F90130DCD1F6E7D4
:10094000002B09DA22460A21404603F0EDF9013076
:10095000EDD00A20BDE8F08123680A22591C2160ED
:100960001A70F6E700F0F4F8C0E700BF024B01464A
:100970001868FFF7B3BF00BF0000002000207047D9
:10098000024A0349034801F07BBF00BF500000202A
:10099000610E0008040000200C4B4168994210B51C
:1009A000044601D000F05CFAA168094B994202D0DC
:1009B000204600F055FAE168064B994204D02046E3
:1009C000BDE8104000F04CBA10BD00BF1406002076
:1009D0007C060020E4060020002070472DE9F84343
:1009E0002A4C2B49DFF8BC90DFF8BC80294FC4F8B3
:1009F0003811002504230822294604F15C00264E04
:100A0000E360C4E90055C4E90455A5606566A561C5
:100A100000F042F9214B63670822294604F1C40023
:100A2000C4E90849C4E90A87C4E91A55C4E91E554E
:100A30002567C4F8CC50C4F88050266300F02CF928
:100A4000174BC4F8DC30294604F16803082204F58A
:100A50009670C4F88830C4E92398C4E92576C4E9BF
:100A60003455C4E93855C4F8D850C4F83451C4F8E2
:100A7000E85000F011F904F1D003C4E93D98C4E94D
:100A80003F76C4F8F030BDE8F88300BF14060020BC
:100A900081090008B55B0008D95B00080900010066
:100AA000120002004D5B0008755B0008F8B5254B8D
:100AB000D3F838310646002B3CD0234FD7E9013418
:100AC000013B04D51DE05A1C04F1680419D0B4F9A7
:100AD0000C50013B002DF6D11C4BE360C4E90155DD
:100AE000C4E9045565662560A5610822294604F11C
:100AF0005C0000F0D1F8C4E90D55C4E91255204658
:100B0000F8BD3D680DB12F46D8E74FF4D671304699
:100B100000F06AFD044680B10423C0E900530C30A4
:100B20002946A0604FF4D072254600F0B5F83C602D
:100B30002F46C3E7FFF752FFBFE70C23386033604F
:100B4000DDE700BF14060020500000200100FFFF79
:100B5000036A03B17047044B044AD3F83831026288
:100B6000002BF7D13AE700BF1406002099090008CE
:100B7000704700BF704700BF024A0349002001F0E0
:100B80007FBE00BF500000207D090008024A0349D3
:100B9000002001F075BE00BF50000020D9090008F8
:100BA00008B5062006F06EF9012008F0A3FE00BF8C
:100BB0000000000000000000000000000000000035
:100BC00030B490F800F020F007016FF0000C10F046
:100BD000070491F820F040F048804FF000046FF0D7
:100BE0000700D1E9002391F840F000F1080082FAF3
:100BF0004CF2A4FA8CF283FA4CF3A2FA8CF34BBBBE
:100C0000D1E9022382FA4CF200F10800A4FA8CF236
:100C100083FA4CF3A2FA8CF3E3B9D1E9042382FA04
:100C20004CF200F10800A4FA8CF283FA4CF3A2FA19
:100C30008CF37BB9D1E9062301F1200182FA4CF251
:100C400000F10800A4FA8CF283FA4CF3A2FA8CF3B8
:100C5000002BC6D0002A04BF04301A4612BAB2FADA
:100C600082F200EBD20030BC7047D1E9002304F0DF
:100C70000305C4F100004FEAC50514F0040F91F814
:100C800040F00CFA05F562EA05021CBF63EA0503B1
:100C900062464FF00004AAE7830730B547D0541EE0
:100CA000002A3ED0CAB2034601E0013C39D303F822
:100CB000012B9D07F9D1032C2CD9CDB205EB0525CD
:100CC0000F2C05EB054535D9A4F1100222F00F0CCD
:100CD00003F1100EE6444FEA121C1A46C2E9005511
:100CE000C2E9025510327245F8D10CF1010214F03C
:100CF0000C0F03EB021204F00F0C13D0ACF1040341
:100D000023F003030433134442F8045B9342FBD102
:100D10000CF003042CB1C9B21C4403F8011BA3421C
:100D2000FBD130BD64461346002CF4D1F9E70346ED
:100D30001446C0E71A46A446E0E700BFB1F90C30FC
:100D40002DE9F0411E070C4680463DD44A68002A32
:100D500056DDE56A002D34D00022D8F80060C8F8CE
:100D6000002013F48052216A57D101234046A8473E
:100D7000451C024666D0B4F90C30E56A216A580772
:100D800005D56368D21A636B0BB1236CD21A0023AA
:100D90004046A847431C42D0002363602369236078
:100DA000A389DF0400D56065616BC8F8006041B1BC
:100DB00004F14403994202D0404601F083FC002331
:100DC00063630020BDE8F0810E69002EF9D09B0717
:100DD0000D6808BF4B690E6018BF0023AD1B8B6008
:100DE0000BE02B463246216AA76A4046B847B0F16D
:100DF000000CA5EB0C05664406DD002DF1DCE0E7F8
:100E00000A6C002AA5DCDCE7B4F90C3043F040039F
:100E1000A3814FF0FF30BDE8F081626DAFE7D8F8F5
:100E20000010B4F90C301D29F0D80C4ACA40D5077F
:100E3000ECD52269226000226260DA04B4D5002970
:100E4000B1D0B1E7D8F80030002B94D01D2B01D0E1
:100E5000162BD9D1C8F80060B3E700BF01004020CD
:100E60000B69B3B110B5044682B008B1036A5BB137
:100E7000B1F90C3013B9002002B010BD204602B009
:100E8000BDE81040FFF75ABF0191FFF761FE0199DD
:100E9000EEE70020704700BFB8B138B50D4A0369CE
:100EA000156804462BB10DB12B6A53B1B4F90C305F
:100EB0000BB9002038BD21462846BDE83840FFF771
:100EC0003DBF2846FFF744FEF0E7034A03490448C4
:100ED00001F0D6BC0000002050000020610E000888
:100EE00004000020014B1868704700BF000000207C
:100EF0002DE9F04755EC104B84B0002D0D9E89462E
:100F000092463DDB0027652E1F7035D03DDC452E17
:100F100032D0462E5AD1032103AB019302AB00938A
:100F200045EC104B0C9B4A4600F074FC074626F03B
:100F30002003462B07EB090805D13B78302B39D02D
:100F40000C9B1B689844204629460022002307F08A
:100F5000EBF9002838D1039B984506D930215A1C5B
:100F600003921970039B4345F9D30E9ADB1B384655
:100F7000136004B0BDE8F08709F101090221CBE755
:100F800005F100422D271546BDE7662EC3D003AB01
:100F9000019302AB009345EC104B0C9B4A46022197
:100FA00000F038FC672E0746C1D11AF0010F1ED1A0
:100FB000039BDAE7002200232046294607F0B4F914
:100FC000C0B10C9B1B6898444346CEE703AB01932A
:100FD00002AB009345EC104B0C9B4A46022100F0FB
:100FE00019FC472E0746A2D11AF0010FE0D007EBFB
:100FF0000908A8E70C9AC9F101031360A2E700BF32
:1010000070B50029BABF49422D232B23092982B08C
:10101000027043702BDD0DF10704194DA446A5FBAA
:101020000123DB0803EB8302A1EB42028E46303240
:10103000BEF1630F66460CF8012C19460CF1FF3C1B
:10104000EDDCB31E3031A3420CF8011C00F10205A7
:101050000AD2421C13F8011B02F8011FA342F9D166
:101060000DF109039B1B1D44281A02B070BD3023EB
:101070001944051D8370C170281A02B070BD00BFED
:10108000CDCCCCCC2DE9F04F8DB00C46DDF858809E
:1010900016461F46054604F0A5FF0368069318464A
:1010A000FFF78EFD00230A93D8F80030079007332E
:1010B00023F0070303F10802D4F800A094F818B055
:1010C000C8F8002093ED007B8DED047B9DED047B43
:1010D00053EC172B904623F0004984ED127B9F4B75
:1010E0004FF0FF324046494607F050F940B99B4B5C
:1010F000404649464FF0FF3207F02AF9002871D0E8
:10110000DDE9040102460B4607F040F9002840F0F3
:10111000298261684B1C4AF480620BF0DF0832D0F0
:10112000B8F1470F00F022810023226003930AAB3D
:10113000029309AB00939DED040BCDF804B00DF1C3
:1011400023032846FFF7D4FE8146BBF1650F0999BA
:1011500037D9BBF1660F00F028810A9B8B4240F320
:101160002F810029D4BFC1F102020122134423615F
:10117000A1654FF0000A9DF82330002B4AD02D23A3
:1011800084F8433046E0062100232260CDF804B005
:10119000616003930AAB029309AB00939DED040BCE
:1011A0000DF123032846FFF7A3FEB8F1470F814650
:1011B000CBD10999C81C80F2F180ABF1020B5FFA28
:1011C0008BFB01395A4604F150000991FFF718FFD3
:1011D0000A9A1318012A8246236140F337810133AA
:1011E0002361C8E7DDE904010022002307F0A6F827
:1011F00010B12D2384F843302AF00402584B2260AA
:10120000584ABBF1470F8CBF91469946032323618F
:101210004FF0000A009733460BAA2146284601F0FA
:101220000DFF013023D0236858052BD423694A468B
:1012300031462846B847013019D02268E0680B9B38
:10124000920719D5984217DD4FF0000804F11909EB
:1012500004E0E0680B9BC21A42450DDD01234A46BB
:1012600031462846B847013008F10108F1D14FF066
:10127000FF300DB0BDE8F08F9842B8BF18460DB0F2
:10128000BDE8F08FBBF1650F33D9D4E9120100221C
:10129000002307F049F8002800F09A80324A012321
:1012A00031462846B8470130E1D0DDE9093A5345D7
:1012B00002DB2268D107C1D5DDE906233146284685
:1012C000B8470130D3D0BAF1010FB6DD0AF1FF3AC9
:1012D0004FF0000904F11A0801E0D145ADD0012317
:1012E000424631462846B847013009F10109F4D198
:1012F000BDE7DDF82880B8F1010F40F398800123A5
:101300004A4631462846B8470130B0D0DDE90623C9
:1013100031462846B8470130A9D0D4E9120100224D
:10132000002308F1FF3B06F0FFFF002800F0938048
:10133000B8F1010F40F386804FF0000904F11A085C
:1013400001E0D9457ED00123424631462846B847C0
:10135000013009F10109F4D189E700BFFFFFEF7FF8
:10136000A0D60208A4D60208A0D3020809B9012118
:1013700061600023226003930AAB029309AB0093E0
:101380009DED040BCDF804B00DF123032846FFF7C3
:10139000AFFD09998146C81CFFF60FAF63689942FB
:1013A0003FF70BAF4FF0670BD7E60029636856DDB8
:1013B0002161002B00F0858001330B442361D7E6C7
:1013C00023682161DB077FF5D3AE4B1C2361CFE699
:1013D000099B002B4ADD0A9BD4F858B004935B4567
:1013E000A8BF5B46002B984608DD4A463146284692
:1013F000B84701303FF43BAFD4F858B028EAE87260
:1014000093456BDD4FF0000A04F11A08934604E09F
:10141000A36DA3EB0B0252455FDD0123424631462B
:101420002846B84701300AF1010AF1D11FE7D90770
:101430003FF565AF4A46012331462846B84701309B
:101440003FF415AF534604F15002F1E62268D2078B
:101450007FF591AEC3E65B4609F10102ECE7002B94
:1014600034D12268D20731D4012380E6494A0123CE
:1014700031462846B84701303FF4F9AEDDE9093A74
:101480005AEA030324D0DDE9062331462846B8474B
:1014900001303FF4ECAE099B002B78DA4FF0000BE3
:1014A00004F11A0803E0099B5B425B456FDD0123F1
:1014B000424631462846B84701300BF1010BF2D1C4
:1014C000D5E62268D0077FF553AE75E702334EE6C6
:1014D0002268D3077FF5B2AED5E79B46099B049AF5
:1014E0009A4202DC2268D00708D5DDE9062331469E
:1014F0002846B84701303FF4BAAE099B049AA2EBE4
:101500000B0AD31A9A45A8BF9A46BAF1000F0BDD11
:1015100009EB0B02534631462846B84701303FF4E9
:10152000A6AE099B049AD31A2AEAEA7A53457FF7B2
:1015300084AEDDF810B04FF0000904F11A0807E09E
:10154000099BABEB0303A3EB0A034B457FF775AE97
:101550000123424631462846B847013009F10109C6
:10156000EED184E6059B0C4A002BBCBF2D2384F8EA
:1015700043302AF004032360084BBBF1470F8CBFB4
:1015800091469946032323614FF0000A42E65346F1
:101590004A464DE6A0D30208ACD60208A8D60208F7
:1015A00070B5104E336805460C46B3B12146284647
:1015B00003F0DCF9431C0CD0C41C24F00304A0424B
:1015C00005D0211A284603F0D1F9013001D0204678
:1015D00070BD4FF0FF34204670BD194603F0C6F9C8
:1015E0003060E3E7500700202DE9F843CD1C25F0DB
:1015F000030508350C2D38BF0C25002D064618DBD9
:10160000A94216D8DFF8DC8001F0ECFED8F80420FF
:10161000A2B1144603E0636822467BB11C462368EE
:101620005B1BF8D40B2B1FD89442636854D05360D3
:101630000CE00C2333600020BDE8F88329463046D7
:10164000FFF7AEFF431C044619D00560304601F099
:10165000CBFE04F10B00231D20F00700C21A1CBFB3
:101660001B1AA350BDE8F88361199442256014BF8A
:101670005160C8F80410635163684B60E6E7D8F81E
:1016800004701FB33C467F68002FFBD123683946A6
:10169000304604EB030903F069F9814516D123684C
:1016A000ED1A29463046FFF77BFF01300ED0236844
:1016B000D8F804202B442360536883B1A34203D09D
:1016C0001A465B689C42FBD10023B0E70C233360D1
:1016D000304601F089FEAEE7C8F80430B6E7C8F836
:1016E0000470B3E7500700202DE9F04F03690C693F
:1016F000A34283B0C0F28A80013C01F1140500F1DD
:10170000140855F8243058F8242001339A428E46A4
:1017100081464FEA840105EB840708EB840AB2FB9B
:10172000F3F63AD3CDE900150022AC464046134605
:101730005CF8041B05681FFA81FB06FB0B22090CF1
:101740004FEA124B06FB01BB92B2A9B2891A1944A7
:101750001FFA8BF3C3EB214303EB154389B241EA34
:101760000341674540F8041B4FEA1B424FEA2343FD
:10177000DED2DDE9001558F8013073B9AAF1040A88
:10178000D04504D307E0D04504F1FF3403D25AF822
:101790000439002BF7D0C9F810407146484602F0D2
:1017A0006BFE00282EDB4146002255F8040BD1F8D1
:1017B00000C01FFA80FE1FFA8CF3A3EB0E03134444
:1017C000020CC2EB234202EB1C429BB243EA0243EF
:1017D000AF4241F8043B4FEA2242E6D258F82420B7
:1017E00008EB84036AB9043B434504D807E09845F5
:1017F00004F1FF3403D253F80429002AF7D0C9F8C2
:1018000010400136304603B0BDE8F08F002003B031
:10181000BDE8F08F2DE9F04FC5699DB08DED060B49
:10182000269C049057EC106B02910B920993002DAB
:1018300000F0B183296851B16A684A60012393407E
:101840008B6002F04BFB049BDB6900221A60B7F14E
:101850000009B4BF012300232360774BBCBF29F0EC
:101860000049CDF81C9033EA090300F0AC809DEDEF
:10187000067B002251EC170B00238DED007B06F058
:1018800053FD804668B1099A01231360279B13B169
:10189000279A6A4B13606A4B059305981DB0BDE803
:1018A000F08F9DED000B04981AAA1BA902F052FFBD
:1018B0005FEA1955824640F09C80DDE91A8545446F
:1018C00005F23243202B40F39B83C3F1400309FA16
:1018D00003F905F2124326FA03F349EA030006F07E
:1018E00041FA0123013DA1F1F8711293554B0022F9
:1018F00006F0FAF84AA3D3E9002306F0ADFA4AA3AA
:10190000D3E9002306F0F2F8064628460F4606F013
:1019100039FA47A3D3E9002306F09EFA02460B46A4
:101920003046394606F0E2F806460F4606F044FD1A
:1019300000220446089000233046394606F0FEFC9B
:10194000002840F03683089CA8EB0508162C08F107
:10195000FF3B00F214833C4B03EBC403D3E90023A9
:10196000DDE9000106F0EAFC002873D0631E08934D
:10197000BBF1000F4FF000031193C0F20683002368
:101980000C93089B002B6BDA089B0C9A0D93D21AD0
:101990000C925A4200230893029B1092092B67D89D
:1019A000052BC4BF043B0293029BA3F10203CCBFEF
:1019B00000250125032B00F24986DFE813F07C04A3
:1019C000790470045204099AC9F3130942F20F739F
:1019D00059EA060913601CD1279B002B00F02D86C5
:1019E0001A4B05930833279A059813601DB0BDE87C
:1019F000F08FDDE90012C2F31303084643F07F5174
:101A0000CDF84880A5F2FF35DDF8688041F440113B
:101A10006CE7279B002B40F000840D4B05933CE7BF
:101A200061436F63A787D23FB3C8608B288AC63FE4
:101A3000FB799F501344D33F0000F07FA1D30208ED
:101A4000A0D302080000F83FB0BD0208B0D60208DB
:101A5000BCD60208B8F1000F40F3AF8411900C908F
:101A6000089B0D939B4400231093029B092B97D94D
:101A700000234FF0FF32CDE90A23012502930E9592
:101A8000049BDB69002159600A9B1393049802F0C0
:101A9000E5F90590002800F0E285049B059ADB69D2
:101AA0001A600A9B0E2B00F20D81002D00F00A81B6
:101AB0000D99002940F35184AE4B01F00F0203EB66
:101AC000C203C805D3E900894FEA211540F1158406
:101AD000A94BDDE90001D3E9082306F0E7FACDE9D7
:101AE000140105F00F0503277DB1A34EE90708D5C2
:101AF00040464946D6E9002306F0AEF90137804654
:101B000089466D1006F10806F0D142464B46DDE9E4
:101B1000140106F0CBFA80468946119B43B1974BDE
:101B200000224046494606F009FC002840F017858F
:101B3000384606F027F942464B4606F08DF9904BA1
:101B4000002205F0D3FFA1F15073CDE914011593E4
:101B50000A9B002B00F09D800D9B19930A9B189304
:101B60004946404606F028FC189A824B03EBC20314
:101B700013ED027B05468DED167B06F003F90B464F
:101B800002464946404605F0AFFF059F0E9B3035A3
:101B90007E1CECB2804689463546002B00F07284EC
:101BA000DDE916237749002006F080FADDE91423E9
:101BB00005F09AFF3C7042464B4604460D4606F03F
:101BC000DBFB002840F0BF84CDF858B0CDF850A022
:101BD000AB460027189DA2462AE00137AF4280F2AB
:101BE0000685694B50465946002206F035F9664B8A
:101BF000002282468B464046494606F02DF989462A
:101C0000804606F0D9FB044606F0BCF802460B46B7
:101C10004046494605F068FF303406F8014B52460D
:101C20005B468046894606F089FB002840F0DC844C
:101C300042464B465149002005F056FF52465B464E
:101C400006F07CFB0028C8D0199BDDF850A0059A4F
:101C5000374603F1010802E0974200F0A6843E46B1
:101C600017F8013D392BF7D00133DBB23B70454605
:101C700074E1384606F086F842464B4606F0ECF82A
:101C80003F4B002205F032FFA1F15073CDE9140162
:101C900015933E4B00224046494605F025FFDDE9FD
:101CA000144522462B4606460F4606F065FB0028E3
:101CB00040F08A8430463946224605F1004306F05A
:101CC0003DFB28BB1B9B002BC0F292800D9A0E2A75
:101CD00000F38E80274B0D9A03EBC20393ED007B3C
:101CE0000B9B002B8DED027B19DA0A9B002B16DC77
:101CF0000ED1264B0022DDE9020106F0ADF80246C6
:101D00000B46DDE9000106F023FB002800F05C84AF
:101D10000023059E00931F460B9BDD4344E2059B79
:101D20005D1CDDE90278DDE900013A46434606F034
:101D3000BDF906F041FB064606F024F83A46434654
:101D400006F08AF802460B46DDE9000105F0CCFEFC
:101D5000059A06F1300313700A9B012B2F4600F001
:101D600037830125CDF800A0A846DDE902AB9946EE
:101D70002CE000BFB0BD0208A0BE02080000F03F8A
:101D800000001C400000E03F000024400000144020
:101D900052465B462046294606F088F906F00CFBC1
:101DA000064605F0EFFF52465B4606F055F808F18F
:101DB00001080B4602462946204605F095FE06F12D
:101DC0003003C84507F8013B00F000838F4B002229
:101DD00006F042F80022002304460D4606F0A4FA5D
:101DE0000028D5D00D9DDDF800A001353E46B5E0B8
:101DF0000E9A002A40F0F1800023109E0C9D0E9355
:101E00001F4665B1BBF1000F09DD5D450C9A2B46FD
:101E1000A8BF5B46D21A0C92ED1AABEB030B109BDA
:101E200053B10E9B13B1002E40F00B835146109A14
:101E3000049802F03DFA82460498012102F06CF900
:101E4000089B0090002B40F0D381029B012B40F3B4
:101E5000E9810120584410F01F0000F0B780C0F164
:101E60002003042B40F3F8810C9BC0F11C000344B9
:101E70000C93054483440C9B002B05DD51460498CC
:101E80001A4602F085FA8246BBF1000F05DD009983
:101E900004985A4602F07CFA0090119B002B40F007
:101EA0008C810A9B002B40F364810E9B002B40F039
:101EB000BC800D9D0135DDF81480009CDDF828B054
:101EC000DDF81090012607E0514600230A2248461B
:101ED00002F028F80136824621465046FFF704FCFE
:101EE000B34500F1300008F8010BEDDC0A9B002B34
:101EF000C8BF1E46059BD8BF0126814603EB060BD3
:101F0000002451460122049802F042FA00998246C8
:101F100002F0B2FA002840F30382059A02E09345EA
:101F200000F016825E460BF1FF3B16F8013C392BA0
:101F3000F5D001338BF80030DDF810800099404671
:101F400001F0CCFF57B12CB1BC4203D02146404632
:101F500001F0C4FF0498394601F0C0FF04985146CF
:101F600001F0BCFF00233370099B1D60279B002BF1
:101F70003FF493AC05981E601DB0BDE8F08F0123BF
:101F8000BBF1000F1193BFF6FAACC8F101030C933B
:101F90004FF0000BF5E4102000F090FD049B02468A
:101FA000D861002800F04D83C0E90055C0E9025512
:101FB0004DE4204605F0E6FE32463B4606F0B4F915
:101FC00000287FF4C0AC631E0893BCE41C230C9A69
:101FD0001A440C921D449B444DE7029A012A40F397
:101FE000AA810A9B109A5E1EB242C0F26781002B42
:101FF000A2EB060680F2EC820C9B0A9A9D1A6AE11B
:10200000C3F1200306FA03F069E400BF0000244096
:102010003946002304980A2201F084FF139B002B09
:10202000074640F3FE820D960A93002D05DD3946E2
:1020300004982A4602F0ACF90746089B002B40F0B2
:10204000E481B846059E0A9C731E1C44069B03F05F
:102050000103CDE90B43049C00995046FFF744FB74
:1020600039468346504602F007FA00990546424633
:10207000204602F023FAC3680BF130090146ABBBDE
:102080000A90504602F0F8F90A990890204601F0AB
:1020900025FF089A002A54D1029B1BB90C9B002BE8
:1020A00000F0AB82002D3FDB0B9BB346B3420BF835
:1020B000019B00F0C181514600230A22204601F015
:1020C00031FF4745824639464FF000034FF00A0280
:1020D000204630D001F026FF4146074600230A2261
:1020E000204601F01FFF5E468046B5E7049801F0E8
:1020F000F5FE002D06DB069B03F00102029B1D434B
:102100002A4329D151460122049802F041F900994D
:10211000824602F0B1F9002840F3F680B9F1390F98
:1021200000F048820BF131090D9D06F8019B3C46F9
:102130000135474600E701F0F5FE5E46074680465A
:102140008AE7002DC0F29D82029B1D430C9B1D431C
:1021500000F09782002AA7DDB9F1390F00F02A823A
:102160000D9D09F101033C4606F8013B0135474648
:10217000E2E6029B022B7FF798AE0A9B002B40F011
:10218000238100990498052201F0CCFE01460090BD
:10219000504602F071F9002840F31681059E0D9D0E
:1021A000312306F8013B01350099049801F096FEB1
:1021B0000135002F7FF4CEAED0E60099504602F0F4
:1021C0005BF90028BFF66DAE5146002304980D9CC4
:1021D0000A2201F0A7FE0E9B661E8246002B7FF4AA
:1021E00017AF139B002B40F30F820D9D0A9362E6FD
:1021F00001461A46049802F05BF8029B0090012BFE
:102200006FDD00230893009A136902EB83031869BA
:1022100001F030FFC0F120001CE6964B059303331C
:10222000FFF7E1BB069B002B7FF413AEDDE906123E
:10223000C2F31303002B7FF40CAE8F4B13402BB172
:102240000C9B01330C930BF1010B0123089A0893AB
:10225000002A3FF4FEADD6E73FF40DAEC0F13C03DB
:10226000B5E601230E930B9B0D9A13441393013390
:10227000012B1F460A93B8BF0127049B172FDE6965
:1022800040F2FB81012204235B0003F11400B842F9
:10229000114602F10102F7D97160FFF7F7BB012384
:1022A0000E930B9B002B36DD1F4613930A93E4E736
:1022B00000230E93D7E700230E93F2E7109B089AB2
:1022C0001096F31A1A4408920A9B0C9A15461A445F
:1022D0009B440C9200260498012101F01DFF074643
:1022E0008FE5069B002B8CD1DDE90601C1F31303BA
:1022F0000A46002BA1D0089085E79DED007B0227C0
:102300008DED147BFFF7F0BB7FF40EAF19F0010FDA
:102310007FF404AF08E70123CDE90A33FFF7B0BB30
:1023200003D119F0010F7FF4F8AD5E461BF8013DB3
:10233000302BFAD000E6129A002A00F0078103F24F
:1023400033430C9A109E15461A449B440C92C2E7E4
:10235000059A312301351370EEE500F0FB800D9AEC
:10236000464B554205F00F0203EBC203D3E90023AD
:10237000DDE9000105F070FD2D11CDE9140100F03B
:1023800057813F4E0023022780468946EA0709D538
:10239000D6E900234046494605F05EFD01378046F8
:1023A000894601236D1006F10806EFD1002B7FF45A
:1023B000B4ABDDE91489FFF7B0BBC8F10103834674
:1023C0000C931190FFF74CBB059EA5E4DDF800A02F
:1023D00002460B4605F08AFB0D9D02460B46CDE9F1
:1023E00000230135DDE90223A84605F0C5FF40B909
:1023F000DDE90223DDE9000105F096FF18B1F307DE
:1024000001D5059A2BE43E46A8E57968049801F0C9
:1024100025FD0546002800F029813B6902339A001A
:1024200007F10C010C3000F0AFFA049829460122A4
:1024300001F0AEFF804605E60D9D3C46013547465E
:102440005FE5049C39463246204601F031FF524692
:1024500001460746204601F075FE5146804620465B
:1024600001F03CFD109B9B1BC24610933FF4E4AC73
:10247000DCE400BFBCD602080000F07FB0BD02085B
:10248000A0BE0208DDE91623DDE9140105F0E4FC35
:10249000059B1C70189B012BCDE90E0100F0BF803D
:1024A000189F059B12961F447E4B002240464946CA
:1024B00005F0D2FC0D46044605F07EFF814605F08E
:1024C00061FC09F1300902460B462046294605F019
:1024D0000BFB06F8019BB74280468946E4D1129D6A
:1024E000714B0022DDE90E0105F000FB02460B46B0
:1024F0004046494605F040FF00286FD1DDE90E2334
:102500006949002005F0F0FA02460B46404649466C
:1025100005F014FF88B91B9B002BFFF66DAC0D9BDB
:102520000E2B3FF769AC614B0D9A03EBC20393EDA1
:10253000007B8DED027BFFF7F4BB3E46013F16F8B2
:10254000013C302BF9D0199D013507E51A9BC3F1E9
:102550003603F6E6DDE900890227FFF7DEBA0A9BBB
:10256000002B3FF486AB139C002C7FF7ABAB0D9B8D
:10257000013B00224046494619934A4B05F06CFC4A
:1025800080468946781C05F0FDFB42464B4605F027
:1025900063FC474B002205F0A9FAA1F15073CDE985
:1025A000140118941593FFF7DBBA08F101083123E1
:1025B000FFF75CBB0D9D059AB34639233C460BF8EB
:1025C000013B01354746ADE4002300931F46E5E596
:1025D0000C9A15461A449B440C927CE6199B059A6A
:1025E00003F10108FFF73BBBDDF850A0ABE7DDF8D6
:1025F00058B0DDF850A0FFF765BBB9F1390FD9D05D
:10260000002D3FF78FAD8FE5029B022B03DC139B60
:102610000D9D0A934FE4139B0A930D96ADE5374643
:102620005EE7029B022BF6DC139B0D960A93FCE4FB
:10263000DDE914890227FFF770BA1E4B0593FFF7F7
:102640002CB91D4B1D48EF21FDF7EEFF0498C3691F
:1026500000255D60294601F001FC0590A8B9184BE2
:102660001648002240F2AF11FDF7DEFF144B13486D
:102670002A4640F2EF21FDF7D7FF00217160FFF7F6
:1026800005BA002A3FF73EAD4EE5049B059ADB698B
:102690000B951A604FF0FF33012213930E920A93A9
:1026A000FFF710BB000024400000E03FB0BD02086F
:1026B00000001C40B0D60208C0D60208D8D60208D6
:1026C00004D70208002950D038B551F8043C0C1F3B
:1026D000002BB8BFE418054600F084FE274A1368B3
:1026E0002BB1A3420CD92168601883422CD06360BF
:1026F00028461460BDE8384000F076BEA3420FD8EB
:102700001A465B68002BF9D111685018844217D023
:102710002CD3636054602846BDE8384000F064BEA6
:1027200011685018A04214D020D821686018834244
:10273000EFD118685B680844C4E900035460EAE715
:1027400023680B441360E6E718685B680844206060
:10275000CDE720680144501883421160DBD1D3E9F2
:1027600000040144C2E90014D5E770470C232B6034
:102770002846BDE8384000F037BE00BF54070020AF
:1027800088420ED98B1883420BD900EB020C002A29
:102790006ED0624613F801CD02F801CD9942F9D10D
:1027A00070470F2A0FD8034602F1FF3C002A5FD082
:1027B0000CF1010C013B8C4411F8012B03F8012FA3
:1027C0006145F9D1704740EA01039B0751D1A2F15D
:1027D000100370B501F1200C23F00F0501F1100E6C
:1027E00000F11004AC441B095EF8105C44F8105C66
:1027F0005EF80C5C44F80C5C5EF8085C44F8085C1D
:102800005EF8045C44F8045C0EF1100EE64504F139
:102810001004E9D1013312F00C0F01EB031102F0A7
:102820000F0400EB031328D0043C24F003064FEA06
:10283000940C1E441C1F8E465EF8045B44F8045F33
:10284000B442F9D10CF1010402F0030203EB84035A
:1028500001EB840102F1FF3C4AB10CF1010C013B98
:102860008C4411F8012B03F8012F6145F9D170BD9B
:10287000704702F1FF3C03469AE72246EAE700BFB1
:102880002DE9F8430746884616464FF00009D6E979
:102890000154013D10D4A389012B08D9B4F90E309D
:1028A00001332146384602D0C04749EA0009013DBC
:1028B0006B1C04F16804EED13668002EE7D148465F
:1028C000BDE8F88338B52F4B1B6805460C4613B19D
:1028D0001A6A002A4BD0B4F90C3018071CD52269AB
:1028E00022B313F0010107D0616900204942A060C2
:1028F000A1613AB1002038BD980758BF6169A16055
:10290000002AF7D1190658BF1046F4D543F040030A
:10291000A3814FF0FF3038BDD9062CD55A0712D409
:10292000226943F00803A381002ADAD103F420715D
:10293000B1F5007FD5D02146284600F09DFDB4F9C1
:102940000C302269CDE7616B51B104F14402914230
:1029500004D02846FFF7B6FEB4F90C3000226263BB
:1029600022690021C4E9002123F02403D9E7184695
:10297000FEF7EEF8AFE7092243F040032A60A38197
:10298000C7E700BF00000020844641EA000313F0BF
:1029900003036DD1403A41D351F8043B40F8043B66
:1029A00051F8043B40F8043B51F8043B40F8043B29
:1029B00051F8043B40F8043B51F8043B40F8043B19
:1029C00051F8043B40F8043B51F8043B40F8043B09
:1029D00051F8043B40F8043B51F8043B40F8043BF9
:1029E00051F8043B40F8043B51F8043B40F8043BE9
:1029F00051F8043B40F8043B51F8043B40F8043BD9
:102A000051F8043B40F8043B51F8043B40F8043BC8
:102A100051F8043B40F8043B403ABDD2303211D368
:102A200051F8043B40F8043B51F8043B40F8043BA8
:102A300051F8043B40F8043B51F8043B40F8043B98
:102A4000103AEDD20C3205D351F8043B40F8043B68
:102A5000043AF9D2043208D0D2071CBF11F8013B66
:102A600000F8013B01D30B8803806046704700BF2C
:102A7000082A13D38B078DD010F003038AD0C3F13B
:102A80000403D21ADB071CBF11F8013B00F8013B1D
:102A900080D331F8023B20F8023B7BE7043AD9D3DC
:102AA000013A11F8013B00F8013BF9D20B780370B1
:102AB0004B7843708B78837060467047024B0146B9
:102AC0001868FEF791BD00BF00000020024B0146D0
:102AD0001868FFF7F7BD00BF000000202DE9F04F98
:102AE0000C4687B0896805934B1EB3F5AE7F06464A
:102AF000904640F2BB8127466FF4AE7057F81C3BFE
:102B000001EB000E40F25D11A16043F4F0634FF061
:102B1000000A236043463D46B046D346CDF810A098
:102B2000CDF808A0D146CDF804A00A46CDF80CE0B7
:102B30001E4633681878A0F12B034E2B70D8DFE8BF
:102B400013F0C9006F00C90023016F004F0053004C
:102B500053005300530053005300530053005300DD
:102B60006F006F006F006F006F006F006F001C013F
:102B70006F006F006F000101FA006F006F00EB0043
:102B80006F006F006F006F00DC006F006F006F0060
:102B90006F006F00D6006F006F006F006F00D000F5
:102BA0006F006F006F006F006F006F006F001C01FF
:102BB0006F006F006F000101FA006F006F00EB0003
:102BC0006F006F006F006F00DC006F006F006F0020
:102BD0006F006F00D6006F006F006F006F00D000B5
:102BE0002368D90500F135811BEB0A0318D19A46F9
:102BF000236823F4C0732360D34605F8010BA26851
:102C0000013A2369A260013323617368013B002B01
:102C1000736040F3C380336801333360002A88D186
:102C2000334646469846B9F1000F03D0236823F493
:102C3000807323600BF1FF32012A40F2D0800AF149
:102C4000FF33062B1AD8BAF1020F40F24381BAF1D2
:102C5000030F13D0AAF1040A5FFA8AFA6FEA0A0A8C
:102C6000AA44D4F87C3115F8011D424630469847F5
:102C70002369554503F1FF332361F2D12268D00562
:102C800020D5510500F13781236915F8011C013B5E
:102C90006529236105F1FF3A0DD045290BD0D4F801
:102CA0007C31424630469847236915F8021C013BA7
:102CB0002361A5F1020A4246D4F87C313046984798
:102CC0002268554612F0100200F0A380002007B0E1
:102CD000BDE8F08F23681906A2D523F08003236096
:102CE0008BE7BAF1070F9BD14FF0080A85E7BAF1DD
:102CF000060F95D14FF0070A7FE7BBF1000F40F0B8
:102D00008180B9F1000F00F0B980BAF1010F0DD048
:102D1000BAF1040F0AD083E7BAF1000F4BD0BAF131
:102D2000030F03D0BAF1050F7FF47AAF0AF1010A5D
:102D30005FFA8AFA61E7BAF1020F7FF471AF4FF0E0
:102D4000030A5AE7236803F4A062B2F5806F05D046
:102D500059057FF565AFB9F1000F36D09A0504D457
:102D6000019A0495A9EB0202029223F4F06343F462
:102D7000C07323604FF000093FE7BBF1010F7FF400
:102D80004FAF4FF0020B38E723689A057FF548AF45
:102D900023F420732360CDF804902EE7D4F880311B
:102DA00031464046984700287FF43AAFA268002A8F
:102DB0007FF4BFAE34E7B9F1000F6CD1236803F4A0
:102DC000E062B2F5E06F00F0BF800BF1FF323346F6
:102DD000012A46464FF0000998463FF630AFBD4203
:102DE0000CD9D4F87C3115F8011D4246304698477D
:102DF0002369BD4203F1FF332361F2D1012007B003
:102E0000BDE8F08FBBF1020F7FF47FAF4FF0030BF3
:102E1000F3E62A70236803F4C063B3F5806F3ED0F5
:102E2000029B002B40F0878000223946304602F09A
:102E3000A9FD23689A0757EC106B40D505990B68DC
:102E40001A1D0A601B6883ED000BE3680133E36021
:102E50003CE723F080032360039B09F10109002B69
:102E60003FF4CDAE039B013B0393CAE627464FF0E8
:102E7000000E57F81C3B43F4F06348E6236803F464
:102E8000E062B2F5E06F7FF440AF23F4F0632360BB
:102E90004FF0010BB1E6334646469846C6E6019B25
:102EA0009945C1D0A3EB090204F26F139D4228BFDC
:102EB00004F5B7752A49284600F0AAFFB4E705983B
:102EC00002685B0702F1040125D50160136883EDF8
:102ED000000BBAE7BD4291D9D4F87C3115F8011D39
:102EE0004246304698472369BD4203F1FF332361D0
:102EF000F2D1012083E7BD4280D9D4F87C3115F8A6
:102F0000011D4246304698472369BD4203F1FF3315
:102F10002361F2D172E7059B196015683B46324682
:102F20003046394605F032FAA0B93046394605F048
:102F30008BFA286089E7049D0A23691C304604F057
:102F400083FA029BC21AAFE723F4F06323604FF0C9
:102F5000010A52E6034800F037FF85ED000A74E7E6
:102F600018D70208D0C102080CB400B583B004AB76
:102F700053F8042B019300F093FD03B05DF804EBCC
:102F800002B070470EB410B583B005AB064C53F8D1
:102F9000042B01930146206800F082FD03B0BDE8D8
:102FA000104003B0704700BF000000202DE9F0473B
:102FB000DFF8749007460E46904600F04BFFD9F8B4
:102FC00000504DB133781C466BB1344602E014F822
:102FD000013F3BB13D2BFAD1384600F03DFF0020C8
:102FE000BDE8F087A41B28680028F5D022463146AA
:102FF00000F0FCF928B92868035D3D2B00EB040ABA
:1030000004D055F8040F0028F0D1E5E7D9F80030D6
:10301000EB1A9B103846C8F8003000F01DFF0AF18B
:103020000100BDE8F08700BF5C00002000B583B060
:1030300001AAFFF7BBFF03B05DF804FB2DE9F84FD1
:1030400092461F460A698B68DDF828909A42B8BFFD
:103050001A46CAF8002091F843300C46064613B1D0
:103060000132CAF80020226891065FD5DAF80030F4
:103070000233CAF80030226812F0060F11461DD143
:10308000E1689942D8BF114618DD4FF0000804F1FD
:10309000190B05E0E568DAF80030ED1A45450CDD5E
:1030A00001235A4639463046C847013008F1010825
:1030B000F0D14FF0FF30BDE8F88F216894F843302D
:1030C000003B18BF01238A060AD5E1185A1C30209C
:1030D00081F84300224494F8451082F843100233EB
:1030E00004F1430239463046C8470130E1D0236835
:1030F000DAF80050216903F00603042BD4E902201A
:103100001BD08A4220DD4FF00008521A90441A3436
:10311000002501E0454517DA0123224639463046AD
:10312000C847013005F10105F4D1C2E712F0060FDE
:103130000DD0003B18BF0123D2E7401B8A4220EA92
:10314000E078E2DC0028E2DC0020BDE8F88FE168EE
:10315000DAF800309942D8BF114696DCAEE700BFDE
:103160002DE9F047174684B00A7E0C9D0C460646B2
:10317000984601F1430C002A35D0A2F15803D9B288
:10318000202969D8202B67D8DFE813F0E600660015
:1031900066006600660066006600660066006600FF
:1031A0006600AC0070006600660066006600700095
:1031B000660066006600660021008300C6006600A7
:1031C0006600B6006600830066006600EC002B68AF
:1031D00022686169181D286010061B6802D4520617
:1031E00000F1E08019600023E1462361CDF8008002
:1031F0003B4603AA21463046FFF720FF013020D08E
:1032000023694A4639463046C047013019D0236801
:10321000E068DDF80C909B0718D5484516DD0025C1
:1032200004F1190A04E0E068A0EB0903AB420DDDEC
:103230000123524639463046C047013005F10105A9
:10324000F1D14FF0FF3004B0BDE8F0874845B8BF7A
:10325000484604B0BDE8F08784F84220012004F11C
:1032600042090023206184F84330BFE72A682368BD
:10327000111D1806296002D4590600F195801068C6
:10328000014600286268C0F2938054484FF00A0E4D
:1032900015E020682B6810F0800F53F8041B02D152
:1032A000400648BF89B26F2A4C482B6014BF4FF0CC
:1032B0000A0E4FF0080E0023626884F84330002A9B
:1032C000A26051DB236823F00403236000294BD163
:1032D000002A7BD1E146BEF1080F56D0ACEB0903C2
:1032E000236183E72B681A6804332B6004F14209D9
:1032F00084F842200120B4E72B686268191D296018
:10330000D3F800900021484604F0D2F8002863D09A
:10331000A0EB09006060A4E7236843F0200323606A
:1033200078222F4884F845202A6813F0800F52F83D
:10333000041B03D113F0400F18BF89B22A60DA07CB
:1033400044BF43F02003236019B9236823F020030E
:1033500023604FF0100EAEE7582384F845301F4825
:103360002368E1E72368DBE77546E146B1FBF5F347
:1033700005FB131A0A46AA4210F80A1009F8011DA3
:103380001946F3D2BEF1080FA8D12368DD07A5D5F1
:10339000626823699A42A1DC302309F8013C09F1F3
:1033A000FF399BE719801EE7B2F90010084668E76D
:1033B0002D20002AA26084F8430002DB23F00403DE
:1033C00023600A2505484942AE46CEE7037884F8D3
:1033D000423004F142097EE7606842E754C00208C7
:1033E00020D70208704700BF704700BF002A3ED0B8
:1033F00030B584460446084380070B462ED1032A85
:1034000007D82BE0043A25D01EF0803F22D1032AB2
:1034100022D92068194653F8045BA0F1013EA84266
:10342000A4462EEA000E04F10404EBD09CF8000040
:103430000C7884421DD1E64668B11EF8010F11F8E0
:10344000014FA2EB0E03A04203F1FF3311D11CEB9D
:103450000303F1D1002030BDA44619469CF80000BA
:103460000C78A04205D1012AF4D0E646E4E71046E4
:103470007047001B30BD00BF70B5B1F90C300C4671
:10348000990796B007D504F147030122C4E9043235
:10349000236016B070BDB4F90E100029054629DB73
:1034A0006A4604F09DF8002822DB4FF4806128462C
:1034B000019EFEF799F888B3A389206043F080034A
:1034C00006F47046A381B6F5005F4FF48063C4E94B
:1034D0000403DED1B4F90E10284600F089FA002862
:1034E000D7D0A38923F0030343F00103A381D0E7DE
:1034F000B4F90C3013F0800F14BF40264FF48066EF
:1035000031462846FEF770F840B1A389206043F0A9
:103510008003C4E90406A38116B070BDB4F90C3071
:103520009A05B6D423F0030304F1470243F00203E3
:103530000121C4E90421A3812260AAE770B50C46E9
:10354000B1F90E10002996B015461E460FDB6A46EB
:1035500004F046F800280ADB019B03F47043A3F54E
:103560000053B3FA83F34FF480625B0908E0A28949
:1035700012F0800F4FF0000314BF40224FF480621E
:10358000002033602A6016B070BD00BF000000004C
:10359000000000000000000000000000000000002B
:1035A00002780B78012A28BF9A4240F0D8806DE952
:1035B000044540EA0104CDE902676FF0000C4FEAD0
:1035C00044721AB380EA010414F0070F6BD100F0C3
:1035D000070420F0070004F0030521F007014FEA7B
:1035E000C505F0E8042314F0040FF1E804670CFAB1
:1035F00005F462EA040266EA04060BD063EA0403F7
:10360000624667EA0407664604E000BFF0E8042368
:10361000F1E8046782FA4CF582EA0604A4FA8CF415
:103620006CBB83FA4CF583EA0705A5FA8CF595B9CE
:1036300050E9022351E9026782FA4CF582EA060456
:10364000A4FA8CF483FA4CF583EA0705A5FA8CF505
:103650002543DBD09CB92DBAB5FA85F424F00704D4
:1036600027FA04F1DDE9026723FA04F303F0FF000F
:1036700001F0FF01FDE80445A0EB0100704724BA0A
:10368000B4FA84F424F0070426FA04F1DDE90267B1
:1036900022FA04F202F0FF0001F0FF01FDE8044508
:1036A000A0EB0100704714F0030F3CD110F00304AD
:1036B00028D150F8082B51F8083B82FA4CF582EAE1
:1036C0000305A5FA8CF55DB950F8042C51F8043CBB
:1036D00082FA4CF582EA0305A5FA8CF5002DE8D0B4
:1036E0002DBAB5FA85F424F0070423FA04F122FA7E
:1036F00004F202F0FF0001F0FF01FDE80445A0EB39
:10370000010070474FEAC40420F0030050F8082B72
:1037100021F0030151F8083B0CFA04F462EA0402B8
:1037200063EA0403C9E710F003041DD0A1EB040110
:1037300020F00300E40750F8042B06D012D28B7857
:103740005FFAA2F4E41A06D12BB1CB785FFAB2F497
:10375000E41A00D133B920465DF8104B7047A2EB54
:103760000300704701F1040150F8042BCC0721F04D
:10377000030151F8043B48D824D222F07F4482FA56
:103780004CF594EA1325A5FA8CF50AD165B951F8E0
:10379000043B84EA0204B4EB036F0ED150F8042B0F
:1037A000EBE74FEA132355E035F07F454DD108781C
:1037B000FDE80445C0F1000070474FEA126203F0D3
:1037C000FF0347E002EA1C4482FA4CF594EA1345F1
:1037D000A5FA8CF50AD165B951F8043B84EA0204D4
:1037E000B4EB034F0CD150F8042BEBE74FEA134333
:1037F00030E015EA1C4528D10B884FEA124229E037
:103800004FEA124203EA1C4324E002F0FF0482FA6A
:103810004CF594EA1365A5FA8CF50AD165B951F80F
:10382000043B84EA0204B4EB032F09D150F8042BC3
:10383000EBE74FEA13630DE015F0FF0F05D10B68BE
:103840004FEA122223F07F4304E04FF00000FDE82E
:103850000445704712BA1BBA82FA4CF482EA030498
:10386000A4FA8CF5B5FA85F402FA04F203FA04F32B
:103870004FEA1260FDE80445A0EB1360704700BFFB
:1038800008B410B5002A9DB0044636DB4FF402732D
:10389000ADF814304FF000031B930291069120AB5A
:1038A00017D0013A4FF6FF7104920792ADF8161047
:1038B0001F9A019302A902F077FA421C01DA8B23C6
:1038C0002360029B00221A701DB0BDE8104001B0B9
:1038D00070474FF6FF7104920792ADF816101F9AC9
:1038E000019302A902F060FA431C01DA8B232360E2
:1038F0001DB0BDE8104001B070478B2303604FF04E
:10390000FF30F5E70CB410B5214B00291C689CB0C2
:1039100038DB4FF000034FF402721B93ADF8142014
:10392000029006901FAB18D001394FF6FF72049138
:103930000791ADF8162002A91E9A0193204602F0C5
:1039400033FA421C01DA8B232360029B00221A7097
:103950001CB0BDE8104002B070474FF6FF720491F2
:103960000791ADF8162002A91E9A0193204602F095
:103970001BFA431C01DA8B2323601CB0BDE8104006
:1039800002B070478B2323604FF0FF30F5E700BF94
:1039900000000020032A30B415D941EA0004A4072E
:1039A00084460B4604D0541E0FE0043A032A08D97B
:1039B0001946604653F8044B5CF8045BA542F4D00A
:1039C000F1E760461946541E7AB1431E01390219C7
:1039D00001E09A4209D013F8010F11F801CF6045B8
:1039E000F7D0A0EB0C0030BC7047002030BC704713
:1039F00038B5074D0022044608462A6005F05AFFF4
:103A0000431C00D038BD2B68002BFBD0236038BD91
:103A10005C0700209368013B002B936011DA10B41F
:103A20009469A34209DB0A2907D01368581C106067
:103A3000197008465DF8044B70475DF8044B00F0C0
:103A400073B91368581C106019700846704700BF9E
:103A50009BB1F8B5134406460F46541E5D1E01E0A7
:103A6000AC4208D014F8011F3A463046FFF7D2FFA7
:103A7000431CF5D1F8BD0020F8BD0020704700BF01
:103A8000936810B514461BB918460023636010BD37
:103A900002F0C8FD0023A3600023636010BD00BFD7
:103AA0002DE9F04FA1B08B4691461C46049018B109
:103AB000036A002B00F01C81BBF80C30180740F1A2
:103AC0009580DBF81030002B00F090800023CA4670
:103AD0000D9343F22003ADF839309AF80030864E4A
:103AE00007940127002B79D0D14604E019F8013F53
:103AF000002B00F08580252BF8D1B9EB0A0840F0A7
:103B0000828099F80030002B68D000234FF0FF32FC
:103B1000CDE9092309F1010908930B938DF863306E
:103B20001E9305E0089A07FA03F31A430892A14688
:103B30004C46052214F8011B304603F0B9FCA2469E
:103B4000831B0028EED1089BD90644BF20228DF8A4
:103B5000632099F800101A0744BF2B228DF86320C8
:103B60002A2966D1079A1168043200290792C0F207
:103B70009A800B9199F801102E2970D05F4C032286
:103B8000204603F095FC38B1089B001B4022824080
:103B900013430AF1010A08931AF8011B58488DF8DB
:103BA0003810062203F084FC002800F08280554B78
:103BB000002B69D007AA0092534B04985A4608A9D3
:103BC000FDF760FA0390039B013307D00D9B039A26
:103BD00013440D939AF80030002B85D1BBF80C30BC
:103BE0005B060AD40D9821B0BDE8F08F04985946C1
:103BF000FEF768FE00283FF469AF4FF0FF30F2E7B0
:103C0000B9EB0A08EAD00AF1FF35CDF81490A946BD
:103C1000049D01E0A0453ED94C465A4619F8011FC3
:103C20002846FFF7F7FE02340130A4EB0A04F1D175
:103C3000D4E7A1F13002092A88BFCA469CD80B9B61
:103C400000E00134217803EB830302EB4303A1F18D
:103C50003002092AF5D92E290B93A2468ED19AF863
:103C600001102A292FD1079B9AF802101A6809928D
:103C70000433002A0AF102000793B8BF4FF0FF3364
:103C80008246B8BF099379E7079B073323F0070300
:103C9000083307939AE70D99DDF81490414499F899
:103CA00000300D912FE7494243F002030B91089336
:103CB00060E707AA0092144B04985A4608A9FFF738
:103CC0004FFA03907FE7A1F130020023092A0993FC
:103CD0000AF1010A3FF652AF1AF8011F03EB830302
:103CE00002EB4303A1F13002092AF5D9099345E714
:103CF000FCF72EFFE0E600BF34D702083CD70208ED
:103D000040D7020885100008513A000810B4054C4D
:103D10008446134620685DF8044B0A466146FFF767
:103D2000BFBE00BF00000020F8B50D461446064691
:103D300010B1036A002B37D0A389A269A2601A07C9
:103D400019D52369BBB122686169D31AEDB29942D2
:103D50002F4620DD0133A1680139A160511C21608B
:103D6000157062699A420DD0A389DB0701D50A2D2F
:103D700008D03846F8BD21463046FEF7A3FD38B9D5
:103D80002369E0E721463046FDF76AF80028F0D0C5
:103D90004FF0FF37EDE721463046FDF761F8002888
:103DA000F6D122680123D6E7FCF7D2FEC4E700BFB4
:103DB00010B4044C03460A4620685DF8044B1946CB
:103DC000FFF7B2BF000000209FED010A704700BF5F
:103DD0000000C07F0CB410B59CB01EAB02910691E0
:103DE0006FF0004104910791084953F8042B0591A5
:103DF000002402A901931B9401F0D6FF029B1C70C2
:103E00001CB0BDE8104002B0704700BF0802FFFFC1
:103E10000EB430B59CB06FF000411FAB0491079118
:103E20000A4953F8042B029000240690084D0868B4
:103E3000019302A905951B9401F0B6FF029B1C702B
:103E40001CB0BDE8304003B0704700BF0000002048
:103E50000802FFFF704700BF704700BF70B5C6691A
:103E600005460C465EB1F368A3B153F82400E8B1EF
:103E7000026843F824200023C0E9033370BD1020FA
:103E8000FEF71CFE0646E861E8B10023C0E90033F6
:103E9000C0E9023321220421284603F025FAEB6908
:103EA000F060DB68002BE0D1002070BD012101FA39
:103EB00004F6721D9200284603F016FA0028F3D08B
:103EC000C0E90146D7E7034B034832466B21FCF7B4
:103ED000ABFB00BFC0D6020848D7020870B5C66960
:103EE00005460C464EB13CB1EB696268DB6853F89D
:103EF0002210216043F8224070BD1020FEF7DEFD45
:103F00000246E86120B1C0E90066C0E90266EAE75E
:103F1000024B03488F21FCF787FB00BFC0D6020885
:103F200048D702082DE9F0410D6907460E461C46A8
:103F300001F1140E0020DEF800108BB202FB0343E7
:103F40004FEA134C090C02FB01CC01309BB203EB8E
:103F50000C4385424EF8043B4FEA1C44EBDC3CB179
:103F6000B368AB4207DD06EB850301355C61356163
:103F70003046BDE8F081716838460131FFF76EFFC9
:103F8000804690B13269023206F10C0192000C3089
:103F9000FEF7FAFC314638464646FFF79FFF06EB30
:103FA000850301355C613561E2E7034B0348424616
:103FB000BA21FCF739FB00BF04D7020848D7020832
:103FC0002DE9F8431746284A1E4608330C46092EA9
:103FD00082FB03124FEAE3730546C3EB62033ADD4B
:103FE0004FF0010C00214FEA4C0C634501F1010137
:103FF000F9DC2846FFF732FF014670B3089B4361A6
:10400000092F4FF00103036112DC0A340927BE4275
:104010000BDDF61B264414F8013B0A22303B2846F0
:10402000FFF780FFB4420146F5D10846BDE8F883AA
:1040300004F1090804EB0709444614F8013B0A227D
:10404000303B2846FFF76EFF4C450146F5D1A7F1FE
:1040500008044444DBE70021CBE70A46034B04484D
:10406000D321FCF7E1FA00BF398EE33804D7020808
:1040700048D70208B0F5803F034636BF030400204E
:104080001020B3F1807F3CBF1B020830B3F1805F8A
:104090003CBF1B010430B3F1804F03D3002B06DB80
:1040A000013070479B0003D45B0003D4202070478D
:1040B0000230704703307047036813F0070201466F
:1040C00007D0DA071FD4980721D55B080B600120C1
:1040D000704798B2A0B11046DAB20AB908301B0A8C
:1040E0001A0704BF1B0904309A0704BF9B0802305B
:1040F000DA0703D45B0800F1010006D00B607047BB
:104100001B0C1020E8E700207047202070479B0818
:104110000B600220704700BF10B50C460121FFF76D
:104120009DFE024618B10123C0E9043410BD034BC3
:10413000034840F24511FCF777FA00BF04D70208A4
:1041400048D702082DE9F04FD1F810801569A8452D
:1041500085B00E46924605DB2A46534645468A46BA
:1041600090461E46DAF80830DAF8041005EB080429
:10417000A342B8BF0131FFF771FE8446002800F06A
:104180008B8000F1140707EB840E774505D23B4680
:10419000002243F8042B9E45FBD8143606EB880812
:1041A0000AF11409464509EB850566D2A5EB0A0319
:1041B000153B23F003030AF1150A043355452CBFC0
:1041C0009B464FF0040BCDF808E00394AE46E24660
:1041D00005E0090C2AD1B04507F104074AD956F881
:1041E000041B8DB2002DF4D0CC463C460023019632
:1041F0005CF8040B216886B28AB2000C05FB06222B
:10420000090C1A4405FB001101EB124192B242EA7B
:104210000142E64544F8042B4FEA1143E8D8019ED9
:1042200047F80B3056F8041C090CD4D03B68002228
:1042300048461D463C469446028801FB02C202EBFA
:1042400015429BB243EA024344F8043B50F8043B56
:1042500025684FEA134CABB201FB0C3303EB12435E
:1042600070454FEA134CE7D3B04547F80B3007F1E0
:104270000407B4D8DDE902E4D446002C02DC05E0F2
:10428000013C03D05EF8043D002BF9D06046CCF829
:10429000104005B0BDE8F08F034B044862464FF470
:1042A000B171FCF7C1F900BF04D7020848D7020872
:1042B0002DE9F04312F0030383B0144607462DD1D5
:1042C0000E46A4101CD0FA698AB39568002D39D027
:1042D000E3074FF0000906D4641011D0286898B1A4
:1042E0000546E307F8D531462A463846FFF72AFF48
:1042F000314680463846FFF7F1FD64104646EDD161
:10430000304603B0BDE8F0832A4629463846FFF719
:1043100019FF2860C0F800900546E2E7013B184A03
:1043200052F823200023FFF7FDFD0646C9E71020C1
:10433000FEF7C4FB0246F861E0B10023C0E9003398
:10434000C0E90233012138460192FFF787FD019A47
:10435000054640B1012340F27121C0E90431002338
:1043600090600360B4E7074B07482A4640F24511C6
:10437000FCF75AF9054B044840F2B311FCF754F925
:10438000A0BD020804D7020848D70208C0D6020818
:104390002DE9F0470D4691462B69496803EB6218F9
:1043A000AB6808F101049C4207464FEA621A04DD3B
:1043B0005B009C4201F10101FADC3846FFF74EFD3B
:1043C000064600284DD0BAF1000F00F114000EDDB2
:1043D0000AF105024FEA820C034606EB8202002135
:1043E00043F8041B9342FBD1ACF114031844296930
:1043F00005F1140319F01F0903EB810129D0C9F15C
:10440000200E84464FF0000A1A6802FA09F242EAC6
:104410000A024CF8042B53F8042B994222FA0EFAA4
:10442000F2D84B1B153B23F00303043305F11502AF
:10443000914238BF042340F803A0BAF1000F00D125
:104440004446384634612946FFF748FD3046BDE80A
:10445000F087043853F8042B40F8042F9942F9D818
:10446000EEE7034B034832464FF4EF71FCF7DCF8FC
:1044700004D7020848D702080B6984460069C01AAD
:1044800016D10CF1140C14310CEB830210B401EBB7
:10449000830301E0944508D252F8044D53F8041DFB
:1044A0008C42F7D005D24FF0FF305DF8044B7047D7
:1044B000704701205DF8044B704700BF2DE9F04FB5
:1044C00015460A692B69D21A002A83B0884640F043
:1044D000878001F1140605F1140101EB830106EB5D
:1044E000830301E09E427ED253F8044D51F8042D1F
:1044F0009442F7D075D32B46002445469846696808
:10450000FFF7ACFC8146002800F089802E69C4606A
:10451000D8F8100005F1140B08F1140E09F1140A73
:1045200005F110020EEB80000BEB860157464FF0B1
:10453000000CCDF804B05EF8044B52F8045F1FFA8B
:1045400084FBABB2A3EB0B03240C6344C4EB154414
:1045500004EB23449BB243EA0443704547F8043B11
:104560004FEA244CE7D8A0EB080208F115084045B3
:10457000A2F1150234BF0020012092080028DDF8C6
:1045800004B002F101044FEA840408BF04240BEBD9
:104590000405A942544433D92746284650F8043B21
:1045A0001CFA83FE1A0C634402EB2E429BB243EAD0
:1045B0000243814247F8043B4FEA224CEED80139CE
:1045C000491B21F003010C4423B954F8043D013E7A
:1045D000002BFAD04846C9F8106003B0BDE8F08F50
:1045E00089DA01248BE70021FFF738FC814678B196
:1045F00001220023C0E90423484603B0BDE8F08F40
:1046000000284FEA820208BF00220AEB0204DBE71F
:10461000064B07484A4640F23721FCF705F8034BA2
:1046200003484A4640F24521FBF7FEFF04D7020843
:1046300048D7020882B08DED000B164B019A13404B
:10464000A3F15073002B06DD00221946104641EC01
:10465000100B02B070475B42B3F1A07F4FEA2352C8
:1046600009DA4FF40023134100221946104641ECA9
:10467000100B02B07047A2F114031E2BDABF4FF0EB
:104680000042DA40012200231946104641EC100B8B
:1046900002B070470000F07FF8B5046900F114061D
:1046A00006EB8404271F54F8045C2846FFF7E2FC5D
:1046B000C0F120030A280B6033DDBE42A0F10B01DC
:1046C00019D254F8080C21B3C1F120078D4020FA0B
:1046D00007F215438840A4F1080145F07F538E424C
:1046E00043F4401319D254F80C1CF9400843024615
:1046F00043EC102BF8BD0B280AD005FA01F141F06C
:104700007F53002043F44013024643EC102BF8BDC6
:10471000002045F07F5343F44013024643EC102B36
:10472000F8BDC0F10B0C25FA0CF1BE4241F07F53ED
:1047300038BF54F8081C00F1150034BF21FA0CF101
:10474000002105FA00F0084343F44013024643EC0D
:10475000102BF8BD2DE9F0430E4683B0012159EC32
:10476000108B1546FFF77AFB0446002846D0C9F3A4
:104770000A57C9F313030FB143F480130193B8F13F
:10478000000313D101A8FFF797FC019B636101228D
:10479000203022610FB3A7F233470744C0F1350040
:1047A00037602860204603B0BDE8F0836846009378
:1047B000FFF782FC019BF8B10099C0F1200203FAD7
:1047C00002F2C3400A430193002B62610CBF012235
:1047D0000222A3612261002FDDD104EB8203A0F24B
:1047E000324030601869FFF745FCC0EB421028608A
:1047F000204603B0BDE8F083009AE5E7034B044888
:10480000224640F20F31FBF70FFF00BF04D702082A
:1048100048D702082DE9F04383B0884669468146AF
:10482000FFF73AFF01A9404655EC104BFFF734FF64
:10483000D8F81030D9F81020D21ADDE900315B1A0F
:1048400003EB4213002B59EC108B0DDD05EB0357E6
:104850003D4642464B462046294603F027FC41ECA4
:10486000100B03B0BDE8F083C3EB033309EB035136
:104870008946EEE7172870B506460CDD0A490B4D50
:104880000020002422462B4603F0E6FA013EF9D12F
:1048900041EC100B70BD064B03EBC003D3E90401E0
:1048A00041EC100B70BD00BF0000F03F0000244041
:1048B000A0BD02080139491101F1010C116902F191
:1048C000140303EB81018B4200EB8C0C16D210B564
:1048D000A0F1040E53F8044B4EF8044F9942F9D856
:1048E0008B1A153B23F0030304331844844504D981
:1048F000002340F8043B8445FBD810BD844505D90E
:10490000002340F8043B8445FBD87047704700BF44
:1049100003694A11934200F1140009DA00EB8303A2
:1049200002E053F8042DAAB98342FAD80020704758
:1049300000EB8203F8DD11F01F01F5D010B450F840
:10494000224024FA01F28A40944209D001205DF805
:10495000044B70470120704753F8042D002AF5D10D
:104960008342F9D800205DF8044B704738B5074DF5
:104970000022044608462A600FF014F9431C00D0B8
:1049800038BD2B68002BFBD0236038BD5C070020AE
:104990002DE9F04F2DED028B9DB088460021079246
:1049A000189100220021CDE9041283464146179157
:1049B0000F4611F8012B2D2A5ED801A050F822F0E5
:1049C000934B0008794A0008794A0008794A0008A0
:1049D000794A0008794A0008794A0008794A0008AB
:1049E000794A0008AF490008AF490008AF490008FC
:1049F000AF490008AF490008794A0008794A000821
:104A0000794A0008794A0008794A0008794A00087A
:104A1000794A0008794A0008794A0008794A00086A
:104A2000794A0008794A0008794A0008794A00085A
:104A3000794A0008794A0008794A0008794A00084A
:104A4000AF490008794A0008794A0008794A000805
:104A5000794A0008794A0008794A0008794A00082A
:104A6000794A0008794A0008794A00083B51000851
:104A7000794A00084F51000800210891302A00F0BF
:104A80009780002309932F2A144640F202854FF0A5
:104A9000000938464E464D4613E00130082D179068
:104AA000C8BF09EB89090478C6BF02EB4902A2F12D
:104AB0003009A3F130062F2C05F10105224640F301
:104AC000B88006EB8603392C02EB4303E5DDB049E1
:104AD0000122FEF78BFC00287BD1179A1346013286
:104AE00017925C78002D40F0A285302C40F09C8518
:104AF00013461846013317931C78302CF9D0C2F1B5
:104B000001031844A4F13103082B36D8179F431C26
:104B1000A4F1300E0D9301253C464FF0000A06EB40
:104B200086060EEB46060020631C17936478A4F1FA
:104B30003002092A00F2F182179C01309646002AC1
:104B4000F2D00128D8BF05F1010C40F3FB8600EB41
:104B5000050C0CF1FF3103E05E00A94200F0F28683
:104B6000082D06EB860305F10105F5DD102DDCBFF0
:104B700009EB89094FEA4909EFE7652C40F0EA8221
:104B800000230122CDE90C239A46099B034340F000
:104B9000D282079B9FED7C8B0BB1C3F80080B0EEF7
:104BA000480AF0EE680A1DB0BDEC028BBDE8F08F3C
:104BB0007A7802F0DF02582A00F02E840137179726
:104BC0003A78302AFAD0002A00F08F820123099324
:104BD00059E70020CDE90C00AA46652C36D0452CBB
:104BE00034D000230E93002D7CD1099B034340F069
:104BF0007C820C9B002BCCD1692C00F0778400F3D5
:104C00007084492C00F072844E2CC2D1614917A8DF
:104C100002F004FE0028BCD0179B1B78282B00F064
:104C200083855D4802F014FFB0EE408AF0EE608AA2
:104C30005DE257490122FEF7D9FB0028C9D1179B35
:104C40000D905A1C17925C78AA4670E7002D9CD0F4
:104C5000DDF85C8008F10103179398F801402B2CD4
:104C600000F066822D2C00F05B824FF0000CA4F166
:104C70003001092900F24C82302C179B0AD10133F4
:104C800017931C78302CFAD0A4F13102082AA8D846
:104C9000A4F130015A1C17925C782F2C40F30D843C
:104CA00096460E9308E0013217929EF801402F2C91
:104CB000A3F1300106DD964601EB8103392C04EBAC
:104CC0004303F0DD0E9BD21A082A40F3F68344F624
:104CD0001F630E93BCF1000F85D00E9B5B420E93B9
:104CE000002D82D0DDE90D23BAF1000F08BFAA46DE
:104CF0009B1A102D30460C932C46A8BF102403F0AD
:104D000031F8092D02460B46CDE9042316DD234B6D
:104D100003EBC40353E9122303F09EF8024648460E
:104D20009046894603F01EF802460B464046494627
:104D300002F0DCFE0F2DCDE9040131DC0C9B002BD1
:104D400000F039830C9B40F36882162B40F3BC8340
:104D50000C9AC5F12503934222DB104CC5F10F05D7
:104D600004EBC501DDE90423D1E9000103F074F887
:104D70000C9B5D1B04EBC504D4E9002303F06CF825
:104D800041EC180BB3E100BF000000000000000080
:104D900078D7020888D70208D0C10208B0BD02083F
:104DA0000C9B2C1B1C44002C40F3DA8114F00F00E8
:104DB0000AD03B4901EBC001DDE90423D1E9000140
:104DC00003F04AF8CDE9040134F00F034BD0B3F5FA
:104DD0009A7F00F3A083102BDFF8D8E04FEA23146A
:104DE00040F3E884DDE904234FF0000C0997F04616
:104DF000E146774614F0010F1046194607D0D8E96E
:104E0000002303F029F84FF0010C02460B46641012
:104E1000012C09F1010908F10808EBD1BE46099FF0
:104E2000BCF1000F01D0CDE90423059BA3F154731D
:104E30000EEBC9010593DDE90423D1E9000103F07C
:104E40000BF8184BCDE904010B400A4616498B427A
:104E500000F2618315498B4240F24484144C4FF0B8
:104E6000FF33CDE904340023099300962B465246C4
:104E700039465846FFF7A4F81290002800F04B83FB
:104E8000DDE90D329B1A0C9A002AA8BF00230D936E
:104E90004FF0000922EAE2731393CA46E6E000BF2E
:104EA000B0BD02080000F07F0000A07C0000907CF4
:104EB000FFFFEF7FA0BE0208D21A1F2AA4EB020454
:104EC00000F33B82012303FA02F500231093099BB0
:104ED00026444444A0451E444346A8BF2346B3424B
:104EE000A8BF3346002B03DDE41AF61AA8EB03082B
:104EF0000D9B002B00F3CA81002C00F3E0810C9B7A
:104F0000002B00F31082002E00F30282B8F1000F94
:104F100008DD514642465846FFF73AFA82460028D5
:104F200000F0FF8118993A465846FFF7C7FA8146C4
:104F3000002800F0F6810023C268C36051460E923B
:104F4000FFF79AFA0028C0F20284059E00F07C83E5
:104F500051464846FFF75EFC55EC104B00224FF0DF
:104F600080432046294603F0F3F9002800F07E81B3
:104F70000E9B002B40F0EE81049B002B40F07882CA
:104F8000C6F31303002B40F01982B14B00222046D8
:104F9000294603F0D3F9002840F04D83AD4B0022A1
:104FA0002046294602F058FF0A460146CDE9101274
:104FB00002F100430A900B93DFF8A082A64B06EAA9
:104FC00008089845DDE90A4500F0CB81099B1BB331
:104FD000B8F1D46F20D89AA3D3E90023DDE91001FA
:104FE00003F0B6F9A0B1DDE9100103F00DFA0128D4
:104FF00038BF012002F0B6FE0E9BCDE91001002B58
:1050000040F08F8201F1004314901593DDE91445BF
:1050100005F1D663A3EB0805B0EE480AF0EE680A86
:10502000FFF708FB204653EC102B294602F014FF33
:1050300053EC182B02F05AFDCDE904010C46099BF4
:1050400023B9864B2340984500F0C18118995846F2
:10505000FEF744FF39465846FEF740FF5146584692
:10506000FEF73CFF49465846FEF738FF129C58466B
:105070006168FEF7F3FE0746002800F052812269BE
:105080000232920004F10C010C30FDF77DFC9DED25
:10509000048B1AAA19A95846B0EE480AF0EE680A1D
:1050A000FFF758FB1890002800F0128101215846A4
:1050B000FFF732F88246002800F03381199B002B5D
:1050C000C0F221810D9A139E03EB0208099A1A9CE3
:1050D0009B1A2344624A013B9342C4F13604FFF613
:1050E000EBAE002310930125F1E69FED578B079A55
:1050F0000AB1179B1360089B002B3FF450AD18EECC
:10510000901A18EE102A01F1004343EC182B46E5E3
:105110000023CDF85C800E9365E501230C935CE5DC
:105120004FF0010C08F10203179398F802409EE536
:105130004FF0000CF6E700258AE500220892791C62
:1051400017917A78002A3FF424AD0F4696E40122A5
:105150000892F4E7452C3FF413AD01230C9344E58A
:105160003FF481AE644214F00F020AD03D4B03EBD2
:10517000C203DDE90401D3E9002302F097FFCDE982
:10518000040124113FF46FAE1F2C40DC14F0100317
:1051900018BF6A230993DDE90423DFF8CC804FF0C0
:1051A000000C14F0010F1046194607D0D8E900236F
:1051B00002F052FE4FF0010C02460B46641008F15B
:1051C0000808EED1BCF1000F01D0CDE90423099B02
:1051D000A3B1DDE90401C1F30A52C2F16B03002B54
:1051E0000ADD1F2B40F327830020342B049040F36B
:1051F0008E834FF05C7305936A230993DDE9040104
:105200000022002303F090F800283FF42EAE222362
:105210009FED0D8BCBF8003069E71633FFF6C0AD7C
:10522000DDE90D329A1A0F4B03EBC203DDE90401ED
:10523000D3E9002302F03AFF41EC180B57E700BF17
:105240000000C0FFFFFFDF41000000000000000081
:105250000000F03F0000E03F0000E07F0000F07F32
:1052600002FCFFFFB0BD0208F0BE0208BE4B2046A4
:105270002946002202F0F0FD0E9BCDE91001002B23
:1052800063D101F100430A900B9395E651461A460B
:105290005846FFF70DF88246002842D00146189A7A
:1052A0005846FEF74FFF00283BD00E9018995846FD
:1052B000FEF714FE0E9B1893002C7FF720AE189972
:1052C00022465846FFF764F8189000287FF417AE7E
:1052D00005469FED978B2223CBF800302946584690
:1052E000FEF7FCFD39465846FEF7F8FD5146584694
:1052F000FEF7F4FD12995846FEF7F0FD4946584670
:10530000FEF7ECFDF3E6139ADDF83480D61ADDE6FD
:10531000394632465846FFF73BF8074600287FF4E7
:10532000F5AD189DD5E73946139A5846FEF7C0FFEC
:10533000074600287FF4E7ADF3E78C4AD31A012231
:1053400002FA03F310931546C1E59DED107B8DED38
:105350000A7B31E69FED787B8DED0A7B8DED107B2E
:105360002AE6A6F154730593DDE9044545EC104B9C
:10537000FFF760F9DDE90A2351EC100B02F06CFD38
:1053800022462B4602F0B2FB794A7A4B0A409A42F7
:10539000CDE9040179D918EE902A03F154739A42A9
:1053A00003D118EE103A0133BBD0734C4FF0FF33EA
:1053B000CDE904344AE69DED048B98E69FED607BD1
:1053C0008DED0A7B9FED5C7B8DED107BF4E5DDE9D7
:1053D00010562846314603F0EFF802F00FFD024662
:1053E0000B462846314602F07FFB0E9D049EC4F317
:1053F0001304354302460B462543CDE90E2325D140
:1054000051A3D3E9002302F099FF00283FF41EAE18
:105410009DED048B189D61E70293089B019318ABE7
:105420000093564A19AB17A9584600F035FE10F004
:105430000F0504463FF459AE062D40F0A980013710
:1054400000239FED438B1797089350E642A3D3E9BF
:10545000002302F073FF0028DAD1DDE90E0140A33A
:10546000D3E9002302F088FF00283FF4EFADCFE737
:10547000049B012BA2D1002EA0D1189C22239FEDCA
:10548000348B2546CBF8003028E701F1547405949D
:10549000D5E53B4901223846FDF7A8FF002800F07A
:1054A000BA804FF000094E464846CDF834904D463C
:1054B000CDF83090CA46FFF792BB44F61F6399427D
:1054C000A8BF19460E9105E40C982E4901EBC001C6
:1054D000DDE90423D1E9000102F0BEFC41EC180B28
:1054E00005E66E2C3FF492ABFFF753BB264917A895
:1054F00002F094F900283FF44CAB179B2349013B81
:1055000017A8179302F08AF910B9179B0133179364
:105510009FED078BEBE522239FED058BCBF8003049
:10552000E5E59DED107B8DED147B6FE5AFF300801D
:10553000000000000000F07F000000000000F03FCD
:10554000000000000000F0BF9535A094FFFFCF3FA2
:1055500000000000000000009535A094FFFFDF3F31
:1055600035E5AF350000E03F0000E03FE2FBFFFF24
:105570000000F07FFFFF9F7CFFFFEF7FC8BE0208A7
:1055800078D70208B0BD02087CD7020880D702088D
:10559000189A3AB135211AA8FFF78CF9189958468C
:1055A000FEF79CFC013D199B042D00F2DE81DFE833
:1055B00005F0032C291E03001A9A049203F23342C9
:1055C0001B9B23F4801343EA02530593E20502D5A3
:1055D00043F000430593B64A1A409DED048B002A20
:1055E0007FF485ADFBF77EFC222303607FE54FF05F
:1055F000FF326FF00043CDE90423E3057FF5DBAE16
:10560000059BE5E7AA4B0593F7E7DDE91A121B9B1B
:10561000CDE90412DAE7179A1346013217925C7843
:1056200006468146FFF761BA0020FFF76BBAAA462B
:105630000D90FFF77CBA9FED9A7B8DED0A7B9FED75
:105640009A7B8DED107BB7E40E9BDDF840C0994945
:10565000A846C6F31302002B49D08A4200F0F3801B
:10566000BCF1000F37D1049B1D4237D0B0EE480A81
:10567000F0EE680AFEF7DEFF099B51EC100B002BE1
:1056800000F04D81C6F30A53C3F16B03002B07DD15
:105690001C0504F17F53002203F5401302F0DCFBEC
:1056A00002460B4651EC180B02F020FA41EC180BA5
:1056B000814B51EC180B002202F0CEFB41EC180B91
:1056C0007B4B18EE902A1340002B7FF4A3AE2223CD
:1056D000CBF800309EE61CEA060FC7D1099B002BD1
:1056E000E6D197E602F154730593FFF7BCBB002A9D
:1056F00064D1DDE90401002840F09680099B002B6D
:1057000040F0F48021F00044240D2405A4F5801419
:105710006FEA14536FEA035305934FF0FF3304937A
:105720009DED048B189DD9E5644917A81AAA02F0CB
:1057300091F805287FF475AA1B9B43F0FF4343F4BF
:10574000E00305931A9B04939DED048BCFE4DDE900
:1057500004010E9B0343C1D1C1F31303002BBDD140
:1057600021F00044240D2405B4F1D66F2546B5D9A7
:10577000D9F814301BB9D9F81030012BAEDD4946E9
:1057800001225846FEF704FE51468146FEF774FE9C
:105790000028A3DD099B002BB8D0A5F580156FEA82
:1057A00015536FEA035305934FF0FF3304939DEDB8
:1057B000048B7DE74FF00009FFF737BBBCF1000F0A
:1057C0002DD1049B1D4289D0B0EE480AF0EE680A44
:1057D000FEF730FF099B51EC100B002B72D0C6F383
:1057E0000A53C3F16B03002B07DD1C0504F17F5343
:1057F000002203F5401302F02FFB02460B4651EC4A
:10580000180B02F071F902460B4643EC182B0022EC
:10581000002302F089FD00283FF44AAF2DE61CEA80
:10582000060F3FF45BAFCFE7BCF1000FF7D1284282
:105830003FF454AFC8E74FF0FF3202FA03F3049A83
:105840001A400492D8E4099B0499B3B1184A324033
:10585000B2F1D46F11D8120DC2F16B024FF0FF30CC
:1058600000FA02F291420BD0BCF1000F7FF433AF8B
:1058700011EA080F3FF432AFF8E64FF0FF32F1E7DC
:105880000F4A964255D00A4A324002F580130593DA
:10589000002304939DED048B20E700BFAFF300804D
:1058A000000000000000E0BF000000000000E03F3A
:1058B0000000F07FFFFF0F0000005039DCBE02083F
:1058C000FFFFEF7F02460B4651EC180B02F00CF97C
:1058D000189C02460B4643EC182B00220023254659
:1058E00002F022FD00283FF4F9ACC7E5244D354015
:1058F000B5F1D66F3FF651AFB5F15C7F3FF6D8AE4C
:1059000022239FED1B8B189DCBF80030E6E4C2F1FB
:105910004B024FF0FF3393400B4005936CE402467B
:105920000B4651EC180B02F0E1F8189D41EC180BF6
:10593000D4E40131A7D122239FED0F8B189DCBF822
:105940000030CBE40D9B082D03440D9302DC65462B
:10595000FFF7E5B8BCF1100FDCBF09EB890902EBDA
:10596000490965460020FFF7DFB800232EE600BF97
:105970000000000000000000000000000000F07FB8
:105980000000F07F014BFFF703B800BF600000206C
:1059900010B4054C8446134620685DF8044B0A4653
:1059A0006146FEF7F5BF00BF0000002010B4054CB3
:1059B000054B84460A4620685DF8044B6146FEF7B5
:1059C000E7BF00BF00000020600000202DE9F0418B
:1059D000DFF8A480044613462DED028B0A46D8F862
:1059E00000002146FEF7D4FF55EC104B22462B4613
:1059F0002046294602F0CAFC50BB2046294602F048
:105A000023FD08EE100ADFED197AB0EEC87AB4EE85
:105A1000677AF1EE10FA15DD25F00047144B4FF0D0
:105A2000FF322046394602F0B1FC38B9104B4FF036
:105A3000FF322046394602F08BFC18B1D8F800300E
:105A400022221A60B0EE480ABDEC028BBDE8F0815C
:105A5000002D084804DAFEF7B7F9B1EE408AF1E705
:105A6000BDEC028BBDE8F041FEF7AEB9FFFF7F7FD2
:105A7000FFFFEF7FD0C10208000000202DE9704336
:105A80002C4E2D4B04460A462DED028B21463068E4
:105A9000FEF77EFF55EC104B22462B46204629464A
:105AA00002F074FCC0BB2046294602F0CDFC08EE93
:105AB000100ADFED227AB0EEC87AB4EE677AF1EE22
:105AC00010FA1ADD25F000491D4B4FF0FF32204639
:105AD000494602F05BFC38B9194B204649464FF065
:105AE000FF3202F035FC40B1336822221A60B0EE7A
:105AF000480ABDEC028BBDE8708318EE103A13F033
:105B0000FF4FF4D10F4B2B40002BEDD1B0EE480AE4
