:020000040800F2
:1000000000000220F9B200082960000865600008BD
:10001000796000087D600008816000080000000031
:10002000000000000000000000000000313D00085A
:100030008560000800000000C13D000889600008DC
:100040004DB300084DB300084DB300084DB3000890
:100050004DB300084DB30008696200084DB30008B5
:100060007162000879620008816200088D600008F2
:100070004DB30008996000084DB30008A560000862
:10008000B16000084DB3000879610008BD60000848
:10009000C9600008D5600008E160000889620008B6
:1000A0004DB30008296200084DB300084DB30008A5
:1000B0004DB300084DB300084DB30008516200086D
:1000C0005D6200084DB300084DB300084DB3000851
:1000D0004DB300084DB300084DB300084DB3000800
:1000E000B16200084DB300084DB300084DB30008DD
:1000F0003D620008ED6000084DB300084DB30008F4
:100100004DB300084DB300080D62000809610008F6
:10011000156100084DB300084DB300084DB3000849
:100120004DB300084DB300084DB300084DB30008AF
:100130004DB3000800000000000000004DB30008AF
:100140004DB300084DB300084DB30008216100080D
:100150004DB300084DB300084DB300084DB300087F
:100160004DB300084DB300084DB300084DB300086F
:100170004DB300084DB3000800000000000000006F
:080180004DB300084DB3000867
:1001900010F8012B11F8013B012A28BF9A42F7D031
:1001A000D01A7047000000000000000000000000AE
:1001B00001F0FF01102A2BDB10F0070F08D010F818
:1001C000013B013A8B422DD010F0070F42B3F6D11C
:1001D000F0B441EA012141EA014122F007047FF035
:1001E00000070023F0E80256083C85EA010586EA8C
:1001F000010685FA47F5A3FA87F586FA47F6A5FAC8
:1002000087F68EB9EED1F0BC01F0FF0102F00702D3
:1002100032B110F8013B013A83EA010313B1F8D17E
:100220000020704701387047002D06BF354603385F
:10023000073815F0010F07D1013015F4807F02BF98
:10024000013015F4C03F0130F0BC0138704700BFE9
:10025000034613F8012B002AFBD1181A0138704706
:1002600081F0004102E000BF83F0004330B54FEA67
:1002700041044FEA430594EA050F08BF90EA020FD4
:100280001FBF54EA000C55EA020C7FEA645C7FEA67
:10029000655C00F0E2804FEA5454D4EB5555B8BF8A
:1002A0006D420CDD2C4480EA020281EA030382EAFB
:1002B000000083EA010180EA020281EA0303362D8D
:1002C00088BF30BD11F0004F4FEA01314FF4801C60
:1002D0004CEA113102D0404261EB410113F0004F72
:1002E0004FEA03334CEA133302D0524263EB430329
:1002F00094EA050F00F0A780A4F10104D5F1200EC7
:100300000DDB02FA0EFC22FA05F2801841F1000121
:1003100003FA0EF2801843FA05F359410EE0A5F1F5
:1003200020050EF1200E012A03FA0EFC28BF4CF026
:10033000020C43FA05F3C01851EBE37101F00045DC
:1003400007D54FF0000EDCF1000C7EEB00006EEBE9
:100350000101B1F5801F1BD3B1F5001F0CD3490873
:100360005FEA30004FEA3C0C04F101044FEA4452CA
:1003700012F5800F80F09A80BCF1004F08BF5FEA51
:10038000500C50F1000041EB045141EA050130BD31
:100390005FEA4C0C404141EB0101013C28BFB1F543
:1003A000801FE9D291F0000F04BF01460020B1FA8E
:1003B00081F308BF2033A3F10B03B3F120020CDA61
:1003C0000C3208DD02F1140CC2F10C0201FA0CF03F
:1003D00021FA02F10CE002F11402D8BFC2F1200CA4
:1003E00001FA02F120FA0CFCDCBF41EA0C0190405A
:1003F000E41AA2BF01EB0451294330BD6FEA0404A3
:100400001F3C1CDA0C340EDC04F11404C4F120028D
:1004100020FA04F001FA02F340EA030021FA04F39F
:1004200045EA030130BDC4F10C04C4F1200220FAF6
:1004300002F001FA04F340EA0300294630BD21FA34
:1004400004F0294630BD94F0000F83F4801306BFFA
:1004500081F480110134013D4EE77FEA645C18BFEE
:100460007FEA655C29D094EA050F08BF90EA020F85
:1004700005D054EA000C04BF1946104630BD91EA7D
:10048000030F1EBF0021002030BD5FEA545C05D180
:100490004000494128BF41F0004130BD14F58004BF
:1004A0003CBF01F5801130BD01F0004545F0FE4133
:1004B00041F470014FF0000030BD7FEA645C1ABF68
:1004C000194610467FEA655C1CBF0B46024650EA9F
:1004D000013406BF52EA033591EA030F41F40021CB
:1004E00030BD00BF90F0000F04BF0021704730B551
:1004F0004FF4806404F132044FF000054FF0000126
:1005000050E700BF90F0000F04BF0021704730B5E6
:100510004FF4806404F1320410F0004548BF4042BB
:100520004FF000013EE700BF42004FEAE2014FEA10
:1005300031014FEA02701FBF12F07F4393F07F4FEB
:1005400081F06051704732F07F4208BF704793F0EE
:100550007F4F04BF41F40021704730B54FF4607401
:1005600001F0004521F000411CE700BF50EA010204
:1005700008BF704730B54FF000050AE050EA0102AD
:1005800008BF704730B511F0004502D5404261EB1D
:1005900041014FF4806404F132045FEA915C3FF45E
:1005A000D8AE4FF003025FEADC0C18BF03325FEAFB
:1005B000DC0C18BF033202EBDC02C2F1200300FAAC
:1005C00003FC20FA02F001FA03FE40EA0E0021FAD1
:1005D00002F11444BDE600BF70B54FF0FF0C4CF4BF
:1005E000E06C1CEA11541DBF1CEA135594EA0C0F71
:1005F00095EA0C0F00F0DEF82C4481EA030621EAAC
:100600004C5123EA4C5350EA013518BF52EA0335E6
:1006100041F4801143F4801338D0A0FB02CE4FF098
:100620000005E1FB02E506F00042E0FB03E54FF0C8
:100630000006E1FB03569CF0000F18BF4EF0010EC0
:10064000A4F1FF04B6F5007F64F5407404D25FEABC
:100650004E0E6D4146EB060642EAC62141EA55516F
:100660004FEAC52040EA5E504FEACE2EB4F1FD0CB1
:1006700088BFBCF5E06F1ED8BEF1004F08BF5FEA2F
:10068000500E50F1000041EB045170BD06F00046E1
:1006900046EA010140EA020081EA0301B4EB5C048E
:1006A000C2BFD4EB0C0541EA045170BD41F4801186
:1006B0004FF0000E013C00F3AB8014F1360FDEBFAB
:1006C000002001F0004170BDC4F10004203C35DA87
:1006D0000C341BDC04F11404C4F1200500FA05F30A
:1006E00020FA04F001FA05F240EA020001F00042AB
:1006F00021F0004110EBD37021FA04F642EB060121
:100700005EEA430E08BF20EAD37070BDC4F10C044A
:10071000C4F1200500FA04F320FA05F001FA04F20E
:1007200040EA020001F0004110EBD37041F10001FA
:100730005EEA430E08BF20EAD37070BDC4F1200505
:1007400000FA05F24EEA020E20FA04F301FA05F26D
:1007500043EA020321FA04F001F0004121FA04F215
:1007600020EA020000EBD3705EEA430E08BF20EAE5
:10077000D37070BD94F0000F0FD101F0004640001F
:1007800041EB010111F4801F08BF013CF7D041EAA1
:10079000060195F0000F18BF704703F000465200A5
:1007A00043EB030313F4801F08BF013DF7D043EA76
:1007B0000603704794EA0C0F0CEA135518BF95EA2C
:1007C0000C0F0CD050EA410618BF52EA4306D1D1B3
:1007D00081EA030101F000414FF0000070BD50EAD2
:1007E000410606BF1046194652EA430619D094EA5C
:1007F0000C0F02D150EA013613D195EA0C0F05D146
:1008000052EA03361CBF104619460AD181EA030199
:1008100001F0004141F0FE4141F470014FF0000051
:1008200070BD41F0FE4141F4780170BD70B54FF0EC
:10083000FF0C4CF4E06C1CEA11541DBF1CEA13556C
:1008400094EA0C0F95EA0C0F00F0A7F8A4EB05044E
:1008500081EA030E52EA03354FEA013100F0888045
:100860004FEA03334FF0805545EA131343EA12630E
:100870004FEA022245EA111545EA10654FEA0026C3
:100880000EF000419D4208BF964244F1FD0404F57C
:10089000407402D25B084FEA3202B61A65EB0305D8
:1008A0005B084FEA32024FF480104FF4002CB6EB95
:1008B000020E75EB030E22BFB61A754640EA0C0015
:1008C0005B084FEA3202B6EB020E75EB030E22BF55
:1008D000B61A754640EA5C005B084FEA3202B6EB96
:1008E000020E75EB030E22BFB61A754640EA9C0055
:1008F0005B084FEA3202B6EB020E75EB030E22BF25
:10090000B61A754640EADC0055EA060E18D04FEAE2
:10091000051545EA16754FEA06164FEAC30343EA82
:1009200052734FEAC2025FEA1C1CC0D111F4801F4F
:100930000BD141EA00014FF000004FF0004CB6E748
:1009400011F4801F04BF01430020B4F1FD0C88BFE7
:10095000BCF5E06F3FF6AFAEB5EB030C04BFB6EBF2
:10096000020C5FEA500C50F1000041EB045170BDE5
:100970000EF0004E4EEA113114EB5C04C2BFD4EB12
:100980000C0541EA045170BD41F480114FF0000E96
:10099000013C90E645EA060E8DE60CEA135594EA12
:1009A0000C0F08BF95EA0C0F3FF43BAF94EA0C0F15
:1009B0000AD150EA01347FF434AF95EA0C0F7FF48A
:1009C00025AF104619462CE795EA0C0F06D152EADE
:1009D00003353FF4FDAE1046194622E750EA4106C2
:1009E00018BF52EA43067FF4C5AE50EA41047FF4D3
:1009F0000DAF52EA43057FF4EBAE12E74FF0FF3C38
:100A000006E000BF4FF0010C02E000BF4FF0010C08
:100A10004DF804CD4FEA410C7FEA6C5C4FEA430C81
:100A200018BF7FEA6C5C1BD001B050EA410C0CBFD0
:100A300052EA430C91EA030F02BF90EA020F002032
:100A4000704710F1000F91EA030F58BF994208BF99
:100A500090422CBFD8176FEAE37040F00100704756
:100A60004FEA410C7FEA6C5C02D150EA013C07D1AD
:100A70004FEA430C7FEA6C5CD6D152EA033CD3D0F8
:100A80005DF8040B704700BF8446104662468C46F2
:100A90001946634600E000BF01B5FFF7B7FF002825
:100AA00048BF10F1000F01BD4DF808EDFFF7F4FF4E
:100AB0000CBF012000205DF808FB00BF4DF808EDD9
:100AC000FFF7EAFF34BF012000205DF808FB00BFFC
:100AD0004DF808EDFFF7E0FF94BF012000205DF81E
:100AE00008FB00BF4DF808EDFFF7CEFF94BF0120D3
:100AF00000205DF808FB00BF4DF808EDFFF7C4FFCC
:100B000034BF012000205DF808FB00BF4FEA410C14
:100B10007FEA6C5C02D150EA013C0AD14FEA430CF7
:100B20007FEA6C5C02D152EA033C02D14FF0000034
:100B300070474FF0010070474FEA410212F5001272
:100B400015D211D56FF47873B3EB625212D94FEA14
:100B5000C12343F0004343EA505311F0004F23FAFE
:100B600002F018BF404270474FF00000704750EA53
:100B7000013005D111F0004008BF6FF00040704710
:100B80004FF00000704700BF4A0011D212F500126A
:100B900011D20DD56FF47873B3EB62520ED44FEAD5
:100BA000C12343F0004343EA505323FA02F0704755
:100BB0004FF00000704750EA013002D14FF0FF3093
:100BC00070474FF0000070474FEA4102B2F1E04336
:100BD00024BFB3F5001CDCF1FE5C0DD901F0004C24
:100BE0004FEAC0024CEA5070B2F1004F40EB830074
:100BF00008BF20F00100704711F0804F21D113F1A0
:100C00003872BCBF01F00040704741F480114FEAD8
:100C10005252C2F11802C2F1200C10FA0CF320FA61
:100C200002F018BF40F001004FEAC1234FEAD3237E
:100C300003FA0CFC40EA0C0023FA02F34FEA4303E8
:100C4000CCE77FEA625307D150EA01331EBF4FF071
:100C5000FE4040F44000704701F0004040F0FE408C
:100C600040F40000704700BF7BB972B90029BEBFD5
:100C700000204FF0004106E008BF00281CBF6FF0C5
:100C800000414FF0FF3000F02DB9ADF1080C6DE9D7
:100C900004CE002909DB002B1ADB27F03FFBDDF82F
:100CA00004E0DDE9022304B07047404261EB4101FA
:100CB000002B1BDB27F032FBDDF804E0DDE902232B
:100CC00004B0404261EB4101524263EB4303704781
:100CD000524263EB430327F021FBDDF804E0DDE93A
:100CE000022304B0404261EB41017047524263EB82
:100CF000430327F013FBDDF804E0DDE9022304B031
:100D0000524263EB4303704753B94AB9002908BF05
:100D100000281CBF4FF0FF314FF0FF3000F0E2B869
:100D2000ADF1080C6DE904CE27F0F8FADDF804E027
:100D3000DDE9022304B0704700F1340191E8380086
:100D40009C46A6464CF8045D90E8FF0FE54600BDC2
:100D500090EC210B704700BF80EC210B704700BF67
:100D600090EC200B704700BF80EC200B704700BF59
:100D7000D0EC200B704700BFC0EC200B704700BFC9
:100D8000F0EC0201F0EC0211F0EC0221F0EC023187
:100D9000F0EC0241F0EC0251F0EC0261F0EC027177
:100DA000F0EC0281F0EC0291F0EC02A1F0EC02B167
:100DB000F0EC02C1F0EC02D1F0EC02E1F0EC02F157
:100DC000704700BFE0EC0201E0EC0211E0EC022110
:100DD000E0EC0231E0EC0241E0EC0251E0EC0261B7
:100DE000E0EC0271E0EC0281E0EC0291E0EC02A1A7
:100DF000E0EC02B1E0EC02C1E0EC02D1E0EC02E197
:100E0000E0EC02F1704700BFB0FC0181B0FC019141
:100E1000B0FC01A1B0FC01B1704700BFA0FC018192
:100E2000A0FC0191A0FC01A1A0FC01B1704700BF92
:100E3000EC4600B52DE900502DE9FF1F4FF00003EF
:100E40002DE90C0001A927F043FDDDF840E012B0C8
:100E5000704700BFEC4600B52DE900502DE9FF1F9B
:100E60004FF000032DE90C0001A927F06FFDDDF81C
:100E700040E012B0704700BFEC4600B52DE90050CD
:100E80002DE9FF1F4FF000032DE90C0001A927F009
:100E90007FFDDDF840E012B0704700BFEC4600B5C2
:100EA0002DE900502DE9FF1F4FF000032DE90C0044
:100EB00001AB27F043FDDDF840E012B0704700BF02
:100EC000EC4600B52DE900502DE9FF1F4FF000035F
:100ED0002DE90C0001AA27F0B9FDDDF840E012B0C1
:100EE000704700BF704700BFF1EE103A43F08073C7
:100EF000E1EE103A704700BF0348044B834202D032
:100F0000034B03B118477047F8050020F80500208F
:100F1000000000000548064B1B1AD90F01EBA30186
:100F2000491002D0034B03B118477047F805002061
:100F3000F80500200000000010B5064C237843B9E6
:100F4000FFF7DAFF044B13B10448AFF3008001232D
:100F5000237010BDF805002000000000AC940208CA
:100F600008B5054B1BB105490548AFF30080BDE846
:100F70000840FFF7CFBF00BF00000000FC050020C5
:100F8000AC9402080749CA6803024FF6FF0003F455
:100F9000E0630240134343F0BF6343F40033CB608C
:100FA000704700BF00ED00E01B4BDB68C3F302237A
:100FB00000B5C3F1070EBEF1040F03F1040C28BF06
:100FC0004FF0040EBCF1060F1CD9A3F1030C4FF037
:100FD000FF3303FA0CF322EA03024FF0FF3303FA64
:100FE0000EF321EA030303FA0CF313431B01002859
:100FF000DBB20ADB00F1604000F5614080F80033AD
:101000005DF804FB00229446E7E7044A00F00F0075
:10101000024413765DF804FB00ED00E0FCEC00E018
:101020004109044A00F01F000123834042F82130A7
:10103000704700BF00E100E04309044900F01F00D1
:1010400001222033824041F82320704700E100E074
:101050000138B0F1807F01D30120704710B44FF008
:10106000E023074C58614FF0F00C84F823C00022B5
:10107000072110469A615DF8044B1961704700BF63
:1010800000ED00E04FF0E022042813690CBF43F0AC
:10109000040323F004031361704700BF08B513462F
:1010A0000A460221C0E90633C0F8F411002102F01B
:1010B00003FD002008BD00BF08B513460A46002105
:1010C00002F0FAFC002008BD08B513460A460321C9
:1010D000C0E94233C0F8F411002102F0F9FC00200D
:1010E00008BD00BF08B513460A46002102F0F0FC17
:1010F000002008BD08B504220023C0F8F4211946D9
:101100001A4602F0D9FC002008BD00BF08B5052230
:101110000023C0F8F42119461A4602F0D9FC002039
:1011200008BD00BF30B5014689B000222D20FFF771
:101130003BFF2D20FFF774FF0024164B02941A6C1E
:1011400042F480721A641B6C03F4807301A903A833
:101150000293029B05F008FC05F0E6FB0E4A0F49DE
:101160004300A2FB03230E489B0C40F2E732013BF5
:10117000C0E90324054643600160846008F064FB15
:1011800010B1012009B030BD284608F0B1F809B00F
:1011900030BD00BF0038024083DE1B43002000400A
:1011A0001406002000287BD038B590F82030044683
:1011B000002B72D02268136823F00203136004F03E
:1011C0000DFE054604E004F009FE401B0A285BD82A
:1011D00023685A689107F6D41A6842F001021A602F
:1011E00004F0FCFD054604E004F0F8FD401B0A286D
:1011F0004AD823685A68D207F6D5227E012A1A688F
:101200000CBF42F0800222F080021A60627E012A46
:101210001A680CBF42F0400222F040021A60A27E1F
:10122000012A1A680CBF42F0200222F020021A6044
:10123000E27E012A1A680CBF22F0100242F010026E
:101240001A60227F012A1A680CBF42F0080222F0BD
:1012500008021A60627F012A1A680CBF42F0040279
:1012600022F004021A60D4E90220216902430A43F1
:1012700060696168024301390A4300200121DA6193
:10128000606284F8201038BD636A052243F400339D
:10129000636284F82020012038BD05F069F889E7F1
:1012A0000120704790F82020012A0AD090F82020D1
:1012B000022A034605D0426A42F4802201205A6283
:1012C0007047404BD3F800220120024330B4C3F8EA
:1012D0000022D3F8002222F47C52C3F80022D3F873
:1012E00000224C6A42EA0422C3F800224A69D3F879
:1012F0001C42904024EA0004C3F81C42CD69C44358
:10130000002D45D1D3F80C522540C3F80C52D20021
:10131000CD688B8802F1804202F5C84243EA05435A
:10132000C2F840328D680B8843EA0543C2F8443264
:101330008B69244A33BBD2F804322340C2F804320A
:101340000B69C3B91F4BD3F814221440C3F81442DD
:101350000B6A012B05D11B4AD2F81C320343C2F899
:101360001C32184AD2F8003223F00103002030BCAE
:10137000C2F800327047134AD2F814320343C2F85D
:101380001432E5E7D2F804320343C2F80432D7E757
:10139000012DCDD1D3F80C520543C3F80C52D20025
:1013A0000D688B8802F1804202F5C84243EA05438A
:1013B000C2F840328D688B8943EA0543C2F8443253
:1013C000B6E700BF0064004038B590F82030012B2C
:1013D000044605D0436A43F400234362012038BD2C
:1013E0000268022380F82030136823F001031360A1
:1013F00004F0F4FC054604E004F0F0FC431B0A2B67
:1014000007D823685B6813F00103F5D163621846BF
:1014100038BD636A052243F40033636284F82020F8
:10142000DCE700BF38B590F82030022B044605D029
:10143000436A43F480134362012038BD0268136895
:1014400043F00103136004F0C9FC054604E004F016
:10145000C5FC431B0A2B0CD823685A68D207F6D563
:101460001A68012122F002021A6084F8201000207C
:1014700038BD636A052243F40033636284F8202098
:10148000DAE700BF30B490F82040012C0AD090F881
:101490002040022C06D0436A43F48023436201209B
:1014A00030BC70470568AC68640105D4AC682401A1
:1014B00002D4AC68E40038D5A8680124C0F3016008
:1014C00084401C60D1E902433CB31C434B6844EAAE
:1014D000C30400F118031B01EC5005EB001C0B6961
:1014E000CCF884310B7D012B4FEA001005D1DCF8DC
:1014F000843143F48073CCF884312B185168C3F8DD
:101500008C111268C3F88821DCF8803143F00103A4
:10151000002030BCCCF8803170470C6843EA44535B
:1015200000F1180424012B51D7E7436A43F4001358
:101530004362B4E790F82030012B05D090F82030BA
:10154000022B01D000207047036898689A689B6856
:101550001201C0F3806048BF0130DB00F3D50130D9
:10156000704700BF70B590F82040012C09D090F86A
:101570002040022C05D0436A43F4802343620120BB
:1015800070BD0468002959D1E568AE075BD004EB53
:10159000011C4FEA011EDCF8B05105F0040595600E
:1015A000002D5DD1DCF8B0516D0D1560DCF8B05147
:1015B000C5F34005D560DCF8B451DCF8B46105F042
:1015C0000F0515617444DCF8B451C6F30726966123
:1015D0002D0CD4F8B86155611E7002687244D2F8BF
:1015E000B821120A5A7002687244D2F8B821120C5B
:1015F0009A7002687244D2F8B821120EDA7002684A
:101600007244D2F8BC211A7102687244D2F8BC212B
:10161000120A5A7102687244D2F8BC21120C9A71F3
:1016200002687244D2F8BC21120EDA7181B90268E4
:10163000D36843F02003D360002070BD0129A6D1F8
:101640002569AD07A3D1436A43F40013436296E7CB
:101650000129F1D10268136943F020031361EBE71C
:10166000DCF8B051ED085560A0E700BF90F82030DD
:10167000012B05D090F82030022B01D000207047BC
:10168000036819B9D86800F003007047186900F0C2
:101690000300704790F82020012A034609D090F8F3
:1016A0002020022A05D0426A42F4802201205A6298
:1016B00070471A6853690B4300205361704700BF9D
:1016C00090F82020012A034609D090F82020022A11
:1016D00005D0426A42F4802201205A6270471A689B
:1016E000536923EA01030020536170472DE9F84F45
:1016F00003685C69D3F804809F68D3F80CB0D3F812
:101700001090D3F818A014F0010605461FD0F90771
:1017100000F182800026F9050BD52B684FF480720A
:101720009A60BA0500F1B4807B0540F1D28046F49E
:101730000056F9030BD52B684FF480329A60BA0338
:1017400000F19F807B0340F1C98046F400462107E9
:1017500002D51BF0100F59D1620702D51BF0080FFC
:101760006FD1A30703D52B68DB689F0770D1600694
:1017700002D519F0100F5AD1A10602D519F0080FA1
:1017800071D1E20603D52B681B699B0755D1A703CE
:1017900002D518F0100F5FD1E00302D518F0080F42
:1017A00068D121042ED518F0040F2B6828D0E2054B
:1017B00044BF0AF001021643A70516D51AF0020F1E
:1017C00013D0600546F0020604F4006266D51AF0F4
:1017D000040F61D18AB904225A606B6A33432846E8
:1017E0006B6220F071F8BDE8F88F610504F40062C7
:1017F00002D51AF0040F4FD112B11AF0700A52D16B
:1018000004225A60002EE8D1BDE8F88F2B68102220
:1018100046F40076DA609FE701229A60BA0734D472
:101820007B0760D43E0770D54FF4805673E72B6872
:10183000102246F480661A619EE7284620F03CF8A4
:10184000A5E72B680822DA60284620F033F888E7FD
:10185000284620F023F88AE72B6810225A60284691
:1018600020F02EF898E72B6808221A61284620F00D
:1018700025F886E72B6808225A60284620F022F8CF
:101880008FE7284620F002F861E71FF0FBFF41E7F1
:1018900028461FF0F9FF4CE746F00406002A9AD0CC
:1018A0001AF0700A97D0BAF1400F3ED01ED8BAF1A4
:1018B000200F55D0BAF1300F49D0BAF1100F2FD107
:1018C0009A69042122F070029A6146F00806596074
:1018D00083E7380520D546F480462AE7380317D534
:1018E00046F4803633E74FF4006614E7BAF1500F40
:1018F00024D0BAF1600F13D19A69042122F070024A
:101900009A6146F48076596067E71FF0C1FF01E7EE
:1019100028461FF0C1FF1AE728461FF0BBFF08E763
:101920009A6922F070029A616AE79A69042122F0AA
:1019300070029A6146F0400659604EE79A690421A8
:1019400022F070029A6146F08006596045E79A6974
:10195000042122F070029A6146F0200659603CE7AB
:101960009A69042122F070029A6146F010065960CB
:1019700033E700BF406A704790F82020012A0346F1
:1019800009D090F82020022A05D0426A42F4802231
:1019900001205A62704700205862704784B00DF1F0
:1019A000040C8CE80E00069B012B30D1836B0D9A42
:1019B00023F480338363C36823F4840323F0400358
:1019C000C360C368012A23F44013C36039D01F4B9E
:1019D00001E0013B0DD00269002AFADA02691B4BD3
:1019E00042F00102026101E0013B02D00269D1072D
:1019F000FAD4049B012B07D1836843F0060383606C
:101A0000836843F020038360002004B07047C268FD
:101A10000E4B42F04002C26001E0013B0DD0026972
:101A2000002AFADA0269094B42F00102026101E080
:101A3000013B02D00269D207FAD44FF480338363AA
:101A4000D7E7C36843F48013C360C0E7400D0300C9
:101A5000034600209A6842F001029A60704700BF76
:101A6000034600209A6822F001029A60704700BF86
:101A700008B5C368012923F0C043C36009D019B970
:101A8000C36843F08043C360322004F0ADF9002006
:101A900008BDC36843F00053C360322004F0A4F9CA
:101AA000002008BD84B02DE9704307AC84E80E0027
:101AB000119C0A9D836B002C40F08D8043F4001331
:101AC00083630023C0F8003E0C9BD0F80028C0F8C8
:101AD0000028012B00F5006C00F09480D0F800384D
:101AE00043F00303C0F800384FF4846303614C4BA8
:101AF00001E0013B02D002699606FAD4102303618B
:101B0000474B01E0013B02D00269D206FAD4002221
:101B10004FF0FF33CCF81020CCF81420CCF818305C
:101B2000CCF81C2071B300F5106396464FF0904935
:101B30004FF0FF081E680132002EB4BFC3F80090BA
:101B4000C3F800E09142C3F810E0C3F8088003F145
:101B50002003EFD1002200F5306396464FF0904904
:101B60004FF0FF081E680132002EB4BFC3F800908A
:101B7000C3F800E09142C3F810E0C3F8088003F115
:101B80002003EFD1DCF81030012D23F48073CCF862
:101B9000103024D000226FF08043826143611DB970
:101BA000836943F01003836181691E4B0D9A0B43D7
:101BB00083611AB1836943F008038361012C05D165
:101BC000836943F0804343F004038361BDE87043BD
:101BD000002004B0704743F40023836371E7124B85
:101BE000CCF83030DCF8303043F4803343F003037A
:101BF000CCF8303000226FF08043DCF83010826186
:101C00004361D1E7099B23B9D0F80038C0F8003808
:101C10006AE7D0F8003843F00103C0F8003863E702
:101C2000400D030000383C8000018000890141F034
:101C30002001064A016101E0013A05D0036913F071
:101C40002003F9D11846704703207047400D030068
:101C500000F50062D0F8080810F0060014D0936870
:101C600003F00603022B0ED0936803F00603062B45
:101C700009D0906800F00600A0F10400B0FA80F0EE
:101C80004009400070470320704700BF10B54C78F2
:101C900091F800C00123012C00F5006E03FA0CF34B
:101CA0004FEA4C1219D0DEF81C4000F5306044EACF
:101CB0000343CEF81C3083581B040CD48B68845823
:101CC000C978C3F30A03234343EA814343F08053B3
:101CD00043F400438350002010BDDEF81C409BB24B
:101CE000234300F51060CEF81C3083581C04F2D456
:101CF0008B688458C978C3F30A03234343EA8143BA
:101D000043EA8C5343F0805343F400438350002054
:101D100010BD00BF10B44A7891F800C0012A4FEA04
:101D20004C1327D000F53062D118D45824F4004465
:101D3000D4504FF00064D4504FF08044D450244B22
:101D400001E0013B3FD08A68D206FAD4D0F80438CB
:101D500043F48063C0F80438D0F81C384FF4803264
:101D600002FA0CF223EA0203C0F81C3800205DF8E6
:101D7000044B704700F51062D118D45824F4004485
:101D8000D4504FF00064D4504FF08044D450104BE6
:101D900001E0013B17D08A685400FAD44FF4846202
:101DA0000B4B026101E0013B02D002699106FAD4BB
:101DB0000123D0F81C2803FA0CF39BB222EA030398
:101DC000C0F81C38D2E703205DF8044B704700BF11
:101DD000400D03002DE9704F82B0CC7801944C780F
:101DE0000D784B69012C4FEA451C4DD000F5306E43
:101DF0000EEB0C048D68D4F810806FF31208C4F851
:101E00001080D4F810806FF3DC48C4F810808BB3D6
:101E1000DFF8A0812B44013BB3FBF5F308EAC3488C
:101E20009BB203FB05F5236948EA03032361236999
:101E3000C5F312051D432561012A04BFCB68636108
:101E4000019B012B0CD1D0F8083813F4807F5EF889
:101E50000C300CBF43F0005343F080534EF80C306D
:101E60005EF80C3043F004434EF80C30002002B012
:101E7000BDE8708F2369C5F312051D4325612369F1
:101E800043F400232361D7E700F5106808EB0C0E3C
:101E9000002B3FD1DEF810406FF3DC44CEF8104049
:101EA000DEF8104044F40024CEF81040DEF8104074
:101EB000012A6FF31204CEF8104002D10C69CEF85B
:101EC0001440019C012C55D1D0F8084814F4807FAF
:101ED00058F80C400CBF44F0005444F0805448F8CB
:101EE0000C4058F80C4044F0044448F80C40002AD8
:101EF000BCD19BB203339A08B8D0CB6800F58050B0
:101F000000EB053003EB820153F8042B0260994289
:101F1000FAD1ABE7DEF810908E686FF31209CEF8B5
:101F20001090DEF810906FF3DC49CEF81090DFF8D7
:101F30008490DEF810B006EB030A0AF1FF3ABAFB10
:101F4000F6FA09EACA4949EA0B09CEF81090DEF818
:101F500010A0019EC3F3120949EA0A09012ECEF826
:101F6000109011D0012A21D0D0F83438AC401C4355
:101F7000C0F8344858F80C30002043F0044348F8C7
:101F80000C3002B0BDE8708FDEF8104024F0C04481
:101F9000CEF81040DEF81040012A44F00054CEF88C
:101FA000104091D10C69CEF814408DE70B69CEF842
:101FB0001430DFE70000F81F4B7870B50C784D69DE
:101FC000012B4FEA441C26D000F5306000EB0C03D7
:101FD0008C681E696FF312061E611E696FF3DC4682
:101FE0001E61B5B91D6945F400251D611D69012AF1
:101FF000C4F3120408BFCA6844EA05041C6108BFA0
:102000005A6150F80C3043F0044340F80C30002083
:1020100070BD4C61E6E700F5106606EB0C039DB35E
:10202000D3F810E06FF3120EC3F810E0D3F810E00D
:102030006FF3DC4EC3F810E0D1F808E0AE453CBFCA
:10204000C1F814E07546D3F810E04EF4002EC3F842
:1020500010E0D3F810E0C5F3120545EA0E051D6146
:1020600056F80C50012A45F0044546F80C501FD094
:102070004B69002BCBD0D0F834280123A340134365
:10208000C0F83438002070BD1D696FF3DC451D6158
:102090001D6945F400251D611D696FF312051D6161
:1020A00056F80C50012A45F0044546F80C50DFD193
:1020B0000A695A61002070BD10B49DF804406CB9E3
:1020C00003339B080AD000F5805000EB023201EB8D
:1020D000830351F8040B10608B42FAD100205DF8A5
:1020E000044B7047033210B594080DD000F5805CA6
:1020F00001EB840E0B46DCF8002043F8042B7345FB
:10210000F9D101EB840010BD084610BD4A780B7868
:10211000012A4FEA43130ED000F53060C258002A5E
:1021200003DBC25822F08042C250C25842F400126F
:10213000C2500020704700F51060C258002AF0DA43
:10214000F3E700BFCB780A78497801290CBF00F586
:10215000106000F530605201023B8158DBB221F47F
:102160000011012B815003D8835843F080538350D2
:1021700000207047D0F8003823F4FE63C0F8003820
:10218000D0F80038090101F4FE611943C0F80018C5
:102190000020704708B503460320D3F8042822F036
:1021A0000202C3F8042803F01FFE002008BD00BF90
:1021B00008B503460320D3F8042842F00202C3F80E
:1021C000042803F011FE002008BD00BF42698069A9
:1021D00010407047D0F81838D0F81C081840000C90
:1021E000704700BFD0F81838D0F81C08184080B2EB
:1021F000704700BF00EB4113D3F8082BD0F8140848
:1022000010407047D0F81028D0F8343800EB411057
:10221000CB40DB01D0F80809DBB21343184070470C
:10222000406900F001007047D0F8002900F5006314
:102230006FF30A02C0F800299A6802F00602042A25
:1022400005D1D0F8002942F00302C0F800295A68ED
:1022500042F4807200205A60704700BF10B400241E
:10226000C0F8104BD0F8104B44F40024C0F8104BC9
:10227000D0F8104B44F01804C0F8104BD0F8104BB5
:10228000012944F0C044C0F8104B05D14FF0802123
:10229000C0F8142BC0F8001B00205DF8044B7047F9
:1022A00000B59FED0B7B89B070210122CDE90012B2
:1022B00000230C2269468DED047BCDE902330693A1
:1022C00007F068FC09B05DF804FB00BFAFF30080C5
:1022D000000000000000000010B5184818498CB03C
:1022E00001604FF6FF71C160032100230124042225
:1022F000039103A9C0E90133CDE90434CDE90632E5
:10230000CDE90834CDE90A32036107F00DFB50B97D
:102310000022002309486946CDE9002300F0E0FBD4
:1023200030B90CB010BD0748EA2101F069FAEFE7B7
:102330000448F12101F064FA0CB010BD4007002000
:10234000000400409095020810B5194819498CB056
:1023500001604FF6FF71C1600321002301240422B4
:10236000039103A9C0E90133CDE90434CDE9063274
:10237000CDE90834CDE90A32036107F0D5FA50B946
:10238000002200230A486946CDE9002300F0A8FB9B
:1023900038B90CB010BD084840F20B1101F030FA0A
:1023A000EEE705484FF4897101F02AFA0CB010BD30
:1023B00004070020000800409095020810B523484B
:1023C000234986B000234FF0FF32C0E90013C0E973
:1023D0000232036107F08CFAF8B9002200231B488F
:1023E0006946CDE9002300F07BFB48BB0A200122AF
:1023F000CDE90202002108220F230491134805931E
:102400000DEB020107F014FBA0B910480C2202A941
:1024100007F00EFB38B906B010BD0E4840F223118C
:1024200001F0EEF9D9E70B484FF49C7101F0E8F99F
:1024300006B010BD074840F2331101F0E1F9E4E7BE
:1024400004484FF4957101F0DBF9CFE7C80600208E
:10245000000C0040909502080A480B4910B5002373
:1024600042F60312C0E90013C0E90232036107F02B
:10247000EBF900B910BDBDE81040044840F28511E9
:1024800001F0BEB950060020001C004090950208E3
:1024900000B51B4A0368934283B005D0194A9342A2
:1024A00018D003B05DF804FB0022174B0092596C62
:1024B00041F0010159645B6C03F001030093114684
:1024C0001920009BFEF770FD192003B05DF804EBA6
:1024D000FEF7A6BD00220C4B0192196C41F0800161
:1024E00019641B6C03F08003019311462C20019B9F
:1024F000FEF75AFD2C2003B05DF804EBFEF790BD0B
:1025000000000140001C00400038024010B5036884
:10251000B3F1804F82B004D0194A934210D002B078
:1025200010BD03F50E33002200921A6C42F0010236
:102530001A641B6C03F001030093009B02B010BDF2
:102540000024104B0194596C41F0020159645B6CFA
:1025500003F002032246214601932C20019BFEF743
:1025600023FD2C20FEF75CFD224621462D20FEF7A0
:102570001BFD2D2002B0BDE81040FEF751BD00BF8D
:10258000000401400038024000B5294A0368934224
:1025900089B005D0274A934221D009B05DF804FBE9
:1025A000254B002200921A6C42F002021A641B6C46
:1025B00002229FED1B7B00200021CDE90401134086
:1025C00000F18040009300F5013002A98DED027BFF
:1025D000009B069207F0A0FD09B05DF804FB164BC6
:1025E000002201921A6C42F004021A641B6C9FEDE7
:1025F0000E7B00200021CDE9040103F0040300F16B
:1026000080400222019300F5013002A98DED027B8A
:10261000019B069207F080FD09B05DF804FB00BF46
:102620003000000002000000C000000002000000B6
:102630000004004000080040003802400000000094
:10264000194B02689A4200D0704710B588B003F564
:102650000B3300240194196C14489FED0F7B41F05B
:10266000080119641B6C8DED027B9FED0D7B03F05F
:102670000803019302A902238DED047B0693019ABE
:1026800007F04AFD224605213220FEF78DFC32205C
:10269000FEF7C6FC08B010BD0C00000002000000F0
:1026A0000000000000000000000C0040000002409C
:1026B000D0B5324A0368934286B007D0B3F1804F59
:1026C00021D02F4A934232D006B0D0BD4FF46042A1
:1026D000022300260027012469462A480494CDE9F4
:1026E0000023CDE9026707F017FD4FF4E0620223F3
:1026F000254804946946CDE90267CDE9002307F037
:102700000BFD06B0D0BD4FF440600221CDE90001C1
:1027100000F1804001230026002700F5FC306946C7
:10272000CDE90267049307F0F7FC06B0D0BD0026A0
:102730000027032480220223694613480494CDE92C
:102740000023CDE9026707F0E7FC03220223694674
:102750000C480494CDE90023CDE9026707F0DCFCC6
:102760004FF4E0720223094804946946CDE90267F8
:10277000CDE9002307F0D0FC06B0D0BD0000014039
:102780000004014000040240000002400008024032
:1027900010B55548554C0023602296B040F6AC5118
:1027A000C4E90003A26020460222C4E90313626167
:1027B00007F04AF800285DD14FF480534B4802934C
:1027C00002A906F057FE002840F08580474807F030
:1027D00073F800287AD1454807F052F8002870D1E4
:1027E0002022002341486946CDE9002300F078F912
:1027F000002861D1002000210022CDE90A017023C8
:102800003A480C9206A9CDE90632CDE9082207F034
:10281000EDF900284BD13548042206A907F0E6F966
:1028200000283FD13148082206A907F0DFF9002827
:1028300033D100232D4806930C2206A907F0AAF9EC
:1028400030BB9FED277B4FF400604FF48061CDE9F2
:102850000E0100231422254814930EA98DED127B3E
:10286000CDE9103200F062F948B92048FFF720FFA7
:1028700016B010BD1E48652100F0C2FF9CE7A421E0
:102880001B4800F0BDFF1948FFF712FF16B010BD3E
:102890001748982100F0B4FFD3E71548922100F0C3
:1028A000AFFFC6E712488D2100F0AAFFBAE7104833
:1028B000882100F0A5FFAEE70D487C2100F0A0FFC5
:1028C00098E70B48752100F09BFF89E708487021C5
:1028D00000F096FF7FE706486B2100F091FF75E757
:1028E000000000000020000000000140B8070020A8
:1028F0009095020810B5284C00234FF080408AB014
:102900006021C4E900034FF480522046C4E9032348
:10291000A16006F0D1FF38BB002200231E486946A3
:10292000CDE9002300F0DCF888BB022270200021F2
:1029300004920822CDE902010023174806930DEB0B
:10294000020107F053F9E8B941F2010400231248EB
:102950000C2202A9CDE9034307F048F948B90E4813
:10296000FFF7A6FE0AB010BD0C48B72100F048FFE3
:10297000D2E7CE21094800F043FF0748FFF798FE51
:102980000AB010BD0548C72100F03AFFDCE7034854
:10299000BE2100F035FFC8E77C07002090950208B3
:1029A00010B54148414C0023602292B040F6AC5132
:1029B000C4E90003A26020460222C4E90313626155
:1029C00006F07AFF002841D12022002337486946CB
:1029D000CDE9002300F084F8002859D1002000211F
:1029E0000022CDE9060170233048089202A9CDE902
:1029F0000232CDE9042207F0F9F8002842D12B4831
:102A0000042202A907F0F2F8002835D1082227484D
:102A10000DEB020107F0EAF840BB9FED217B4FF47C
:102A200000604FF48061CDE90A01002314221F48A1
:102A300010930AA98DED0E7BCDE90C3200F076F8EB
:102A400050B91A48FFF734FE12B010BD184840F2D2
:102A50004B1100F0D5FEB7E74FF4BA71144800F0FF
:102A6000CFFE1248FFF724FE12B010BD10484FF4FD
:102A7000B47100F0C5FED0E70D4840F2631100F0DC
:102A8000BFFEC3E70A484FF4AF7100F0B9FEB6E7E6
:102A900007484FF4A97100F0B3FE9FE7AFF3008041
:102AA0000000000000200000000401408C0600200F
:102AB0009095020803680422186A02FA01F120EADC
:102AC000010018621A6A114319625A6C42F40042FA
:102AD0005A641A6842F0010200201A60704700BF71
:102AE00090F83830012B1FD002460368022030B521
:102AF00082F8390058680D684C6820F07000586002
:102B0000586828435860996821F080019960996855
:102B10004FF0000C21434FF0010E996082F839E02C
:102B200082F838C0604630BD0220704790F83830D7
:102B3000012B23D010B4D1E9024323F440730246A1
:102B4000234348680C6823F48063034323F4006341
:102B50000869234323F48053034348698C6923F4B1
:102B60000053034323F4404310680021234343648C
:102B700082F8381008465DF8044B70470220704711
:102B8000704700BF704700BF10B404681204636A46
:102B900029B91A43A26200205DF8044B7047A06A6D
:102BA000013903EB104C09D0002304EB83000133FF
:102BB000D0F8040199420CEB104CF6D104EB8104DF
:102BC00042EA0C02C4F8042100205DF8044B70476F
:102BD000036800205962704710B582B000241C4B76
:102BE0000094196B41F400111963186B00F4001084
:102BF000009000980194186B40F4800018631B6BE0
:102C000003F480032246052101930B20019BFEF76C
:102C1000CBF90B20FEF704FA224605210D20FEF722
:102C2000C3F90D20FEF7FCF9224605210F20FEF71F
:102C3000BBF90F20FEF7F4F9224605211020FEF71C
:102C4000B3F9102002B0BDE81040FEF7E9B900BFAB
:102C5000003802402DE9F04106681F46B36831EAAA
:102C600003030CBF012300239A420DD07B1C0C46AA
:102C7000154618BF80460AD1B36834EA03030CBF77
:102C800001230023AB42F7D10020BDE8F08187B1DA
:102C900003F0A4F8069BD8F80060C01AB84208D226
:102CA000B36834EA03030CBF012300239D42EED135
:102CB000EAE77368D8F8042023F0E003B2F5827FD6
:102CC000736016D0D8F82830B3F5005F07D0012222
:102CD000002388F8512088F850300320D5E7336866
:102CE0004DF6FF7213403360336843F40053336092
:102CF000EDE7D8F80830B3F5004F02D0B3F5806F98
:102D0000E0D1336823F040033360DBE700283BD099
:102D100038B590F8513000220446826203F0FF017A
:102D200063B31046D4E90131E26825680B431343CD
:102D3000D4E904120B431343E269022184F85110D1
:102D40001343226A29681343A26921F040012960D4
:102D500002F4007C616A120C43EA0C0302F00402E4
:102D600003430A432B606A60EB69002023F400638D
:102D70000122EB61606584F8512038BD80F8501065
:102D800000F0E2FEA06ACDE70120704798B102682A
:102D9000022310B580F85130136823F04003044635
:102DA000136000F059FF0023636584F8503084F805
:102DB0005130184610BD0120704700BF2DE9F04387
:102DC000044690F85000012885B063D01D460123C9
:102DD00084F850300E46914603F000F894F85130D4
:102DE000012B07465FFA83F80BD04FF0020801224F
:102DF0000023404684F8512084F8503005B0BDE8E7
:102E0000F083002EF3D0B9F1000FF0D0A268266352
:102E100000230321B2F5004F84F85110C4E91033A8
:102E20006365A363A387A4F83690A4F83490E3877E
:102E300023685AD01A68520603D41A6842F0400236
:102E40001A60E1686268B1F5006F29D0002A51D09C
:102E5000E28E92B2012A4DD0E38E9BB25BB951E073
:102E600016F8012B1A73E38E013B9BB2E386E28EC8
:102E700092B2002A46D023689A689207F0D435B1FE
:102E80006B1CF4D002F0AAFFC01BA842EFD34FF096
:102E90000308ACE74FF00208404605B0BDE8F083F8
:102EA000002A50D136F8022BDA60E28E013A92B253
:102EB000E286E28E92B25AB924E036F8022BDA604A
:102EC000E38E013B9BB2E386E38E9BB2D3B12368D2
:102ED0009A689007F1D4002DD9D0691CF4D002F083
:102EE0007DFFC01BA842EFD3D1E71A6842F48042AD
:102EF0001A609FE716F8012B1A73E38E013B9BB211
:102F0000E386A9E700972B46012202212046FFF71E
:102F1000A1FE0028BBD1024600972B468021204607
:102F2000FFF798FEA0B9A36833B922680393D3686A
:102F3000039393680393039B636DB3F1000818BF79
:102F40004FF0010853E7E28E92B2012AB1D1A9E70E
:102F5000636D202213436365626548E72DE9F04302
:102F6000164690F8502085B0012A0C9F00F09880FA
:102F700004469946012380F850300D4602F02EFF9A
:102F800094F851206168012A8046D3B211D0B1F57E
:102F9000827F09D002200122002384F8512084F886
:102FA000503005B0BDE8F083A268002AF2D1042BAE
:102FB000F0D1002D7DD0002E7BD0B9F1000F78D05C
:102FC00094F85130A663012B04BF052384F85130D7
:102FD00000236365C4E910332368A4F83E90A4F885
:102FE00036901A68A4F83C9050062563A4F83490F3
:102FF00003D41A6842F040021A60E268B2F5006F2A
:1030000059D0002900F08B80E28E92B2012A00F0A4
:1030100086804FF00109E38E9BB21BB9E38F9BB210
:10302000002B5CD0B9F1000F1BD1E38F9BB2002BBA
:103030002CD02068826812F00102314626D0C36885
:1030400001F8013BE38F013B9BB2E3877B1C71D10D
:10305000E38E9BB2002B70D1E38F9BB2002B3ED04E
:103060000E46E38E9BB2002B61D023689A689107CD
:103070005DD515F8012B1A73E38E013B9BB2E386F5
:10308000E38F9BB24FF00009002BD2D17A1CC2D043
:1030900002F0A4FEA0EB0800B842BCD303207AE7FC
:1030A000022005B0BDE8F083636D20221343636501
:1030B000626501206FE7002940F08F8035F8022B10
:1030C000DA60E38E013B9BB2E3864FF00109E38EA9
:1030D0009BB2002B3ED1E38F9BB2002B3AD1CDF8AF
:1030E00000803B46012202212046FFF7B3FD002865
:1030F000D4D10246CDF800803B4680212046FFF720
:10310000A9FD0028D0D1A368002B7FF444AF236829
:103110000390DA6803929B680393039B3BE715F8DF
:10312000012B1A73E38E013B9BB2E38671E74FF0EC
:1031300001097AE791460E46AAE7E38E9BB23BB9B6
:10314000E38F9BB20E469146002B7FF472AF62E78D
:103150000E468AE7B9F1000F21D1E38F9BB2002B15
:1031600031D02368996811F001012CD0DA6826F873
:10317000022BE28F013A92B2781CE28736D1E28EBE
:1031800092B242B1E28E92B26AB9E28F92B28946AD
:10319000002AE7D19BE7E38F9BB2002B9FD0E38E01
:1031A0009BB203B323689A6892071CD535F8022BAB
:1031B000DA60E38E013B9BB2E386E38F9BB24FF074
:1031C0000009002BCDD17B1C81D002F007FEA0EBC3
:1031D0000800B842FFF47BAF60E7E28E92B2012AAA
:1031E0007FF473AF6AE74FF00109B6E78946ECE771
:1031F00038B5044690F85000012867D0012084F8C3
:10320000500094F8510001285FFA80FC0ED06068ED
:10321000B0F5827F04D00220002384F8503038BDFE
:10322000A0680028F7D1BCF1040FF4D100294BD0DD
:10323000002A49D0002B47D094F85100216301287F
:1032400004BF052084F8510000206065E386E38711
:1032500094F85110A3860429C4E91000E06CA387F8
:1032600019BF1B491B4B1C4B1C49A2631C4D03641B
:10327000E38FC1632168C56400259BB20C310565ED
:1032800001F07AF92268A06C5368216B43F00103C6
:103290005360E38E0C329BB2C0E90F55C0E9135561
:1032A00001F06AF923681A68520603D41A6842F0DA
:1032B00040021A605A6842F020025A605A6842F08E
:1032C000020200205A60A7E70120A5E7022038BDCE
:1032D00081330008FD320008ED3200083133000868
:1032E0000D330008704700BF704700BF08B5806B02
:1032F000FFF7FAFF08BD00BF704700BF08B5806B3D
:10330000FFF7FAFF08BD00BF704700BF806B02687F
:1033100008B5536823F003035360436D012143F064
:103320001003436580F85110FFF7EEFF08BD00BFA2
:1033300008B50368806B1B68DB050FD4D0E900215A
:103340005368B1F5827F23F00303536009D0012352
:103350000022C28780F85130436D73B9FFF7C2FF76
:1033600008BD8368B3F5004F02D0B3F5806FEED18E
:10337000136823F040031360E9E7FFF7C5FF08BDBA
:1033800030B5054683B0846B02F028FD2B681A68BF
:1033900012F4807213D10090642380212046FFF73D
:1033A00059FC88B921684B68002223F003030120EF
:1033B0004B60E286E28784F85100636D6BB920466A
:1033C00009F0DAFA03B030BD636D43F020036365A2
:1033D000636D43F020036365E4E72046FFF794FF45
:1033E00003B030BD026810B55168936803F0410C1A
:1033F000BCF1010F84B004465AD0980701D50806E5
:103400005ED413F4B07F51D088064FD558060ED540
:1034100094F85100032842D0606D40F004006065CC
:1034200000200090D0680090906800900098980666
:103430000CD5606D40F0010060650020029090683E
:103440000290106820F0400010600298D80508D55E
:10345000636D002043F00803636503909368039352
:10346000039B636D13B3536823F0E00353600120A3
:103470008B0784F8510029D05368E06C23F00303D4
:10348000536018B1134B036501F0FEF8A06C68B1EE
:10349000104B036504B0BDE8104001F0F5B80023FF
:1034A0000193D368019393680193019B04B010BD0D
:1034B00011F0400FA1D0036C04B0BDE810401847D4
:1034C000636C204604B0BDE8104018472046FFF763
:1034D0001BFFEBE7D934000808B5806B0023C387D6
:1034E000C386FFF711FF08BD10B5074C20684FF0E9
:1034F000FF3104F005FB0028F8D1044801F094FBEB
:103500004320FDF78DFDF1E70C0800201008002096
:1035100008B502F0E9FE0DF0BDFE034B1868BDE8EA
:10352000084005F09BB800BFF407002030B58BB011
:10353000002401216846009404F0CCFA274B284D62
:103540001860214604F0DCFA012101A8019404F07E
:10355000C1FA244B02940246012102A81A6004F029
:10356000B9FA214B2146186004F0CAFA012103A8D8
:10357000039404F0AFFA1D4B04940246012104A801
:103580001A6004F0A7FA1A4B2146186004F0B8FA42
:10359000AE46BEE80F000DF1140CACE80F00DEF8EB
:1035A0000030CCF80030214605A804F021FA114B78
:1035B00018600EF0DDFA0DF03DFC05F1140CBCE8CE
:1035C0000F0005AD0FC5DCF800302B60214605A8C3
:1035D00004F00EFA084B18600BB030BD0C08002048
:1035E000C8940208080800200408002000080020F1
:1035F000FC070020F8070020F407002010B5144C49
:10360000144A2368934205D0134A934206D02A2BCA
:103610000ED110BD114B00BF013BFCD1104B2360FC
:10362000104B83F30888104B5B6898472368EEE7DC
:103630002A232360BFF34F8F0C490D4BCA6802F455
:10364000E0621343CB60BFF34F8F00BFFDE700BFC5
:10365000CCD6002075FEADDEEFBEADDE00A8610069
:10366000EDFEFECA000002200000FF1F00ED00E09A
:103670000400FA050000000070B594B02A4A2B4BF4
:1036800000200190116C41F080511164126C02F025
:1036900080520192019A02901A6842F480421A60A4
:1036A0001B689FED1F7B03F48043029301230224D8
:1036B000029A0D934FF480010425A822072308A83D
:1036C0008DED087BCDE90E41CDE91052CDE91243D5
:1036D00002F09EFE00B1FEE74FF4A05205904FF4B9
:1036E00080530F26052103A8CDE90364CDE9062305
:1036F00003F07AF8044600B1FEE703F00FF90C4B33
:10370000A3FB00308009FDF7A3FC2846FDF7BAFCB7
:10371000224631464FF0FF30FDF746FC14B070BD35
:103720000900000000000100003802400070004065
:10373000D34D6210274A2849D2F8103AD2F8180A15
:10374000B2F8162ADFF8A0C010B50344234C42EAB1
:1037500003421B0CC1E9002304F10C0E2146C3F304
:1037600003301B011CF8000001F8010B714543EA0E
:1037700012734FEA0212F2D10023237302F008FB06
:10378000FFF77AFF04F0CAFCFFF726FA01F0A6FE65
:1037900001F0F8FEFEF7FCFFFFF702F9FEF79CFDD3
:1037A000FEF7D2FD00F0A6F901F040FFFFF7A2F806
:1037B00000F006FCFEF702FEFEF74EFE0848FEF79C
:1037C0006FFD0848FEF76CFDFFF7B0FE04F002F94C
:1037D000FEE700BF0070FF1F70CE00205CCE00200F
:1037E000B80700208C060020C0950208034B026831
:1037F0009A4200D0704702F0E5BA00BF00200040B6
:10380000FEE700BF000000000368B3F1A04F00D046
:10381000704700B59FED147B89B04FF4C050022172
:10382000CDE902010A2302A9114806938DED047B1C
:1038300006F072FC0F4B596B002241F08001596376
:103840000192586C40F4804058645B6C03F48043F0
:10385000052101934320019BFDF7A6FB4320FDF7C3
:10386000DFFB09B05DF804FB00000000030000006E
:103870000000024000380240F8B5D0F8EC5300F5E3
:103880006F7605F5027704463146384602F0ACF90A
:1038900095F8083203F06003402B03D195F8093204
:1038A000502B06D0D4F8EC033146BDE8F84000F0C8
:1038B00087BCD5F81432B5F80E229B680121C5E902
:1038C0007D12284639469847B5F80E3203B900B143
:1038D000F8BD2846BDE8F840FDF70CBCC1EBC103BC
:1038E00000EB8303D0F8EC03D3F8042200F098BC7B
:1038F000C1EBC10300EB8303D0F8EC035A6C00F07A
:10390000C3BC00BFD0F8EC0300F04ABD10B5C168DD
:1039100004460039D0F8EC0318BF012100F02AFD5D
:10392000D4F8EC03BDE8104000F004BD10B5044627
:10393000D0F8EC0300F022FD2268D2F8003E43F0FC
:103940000103C2F8003E236A23B1034A136943F01E
:103950000603136110BD00BF00ED00E0D0F8EC03DA
:1039600000F016BDD0F8EC0300F02ABDD0F8EC034F
:1039700000F024BDD0F8EC0300F024BDD0F8EC0337
:1039800000F022BD02780AB100207047194B10B533
:10399000C3F8EC034FF0A044C0F820320620022107
:1039A000C3E900401846C3E90312C3E90521C3E98E
:1039B0000722C3E90B225A6201F0B4F8A0B98021B2
:1039C0000C48FFF705F9402200210A48FFF7DCF810
:1039D000402201210748FFF7D7F84022032105487C
:1039E000FFF7D2F8002010BD03484FF4AC71FFF789
:1039F00007FFE4E710080020D495020808B5D0F8C6
:103A0000200201F0FBF818B102280CBF01200220AF
:103A100008BD00BF944608B51A46D0F82002634698
:103A200001F034FC18B102280CBF0120022008BDAF
:103A300008B5D0F8200201F06BFC18B102280CBFC9
:103A40000120022008BD00BF08B5D0F8200201F017
:103A5000EDFC18B102280CBF0120022008BD00BFF8
:103A600008B5D0F8200201F011FD18B102280CBFF2
:103A70000120022008BD00BF0A06D0F8203206D47B
:103A8000C1EBC10103EB810393F8FA01704701F028
:103A90007F01C1EBC10103EB810393F83A0070474A
:103AA00008B5D0F8200201F0DDFB18B102280CBFE8
:103AB0000120022008BD00BF08B5D0F8200201F0A7
:103AC0008BFC18B102280CBF0120022008BD00BFEA
:103AD00008B5D0F8200201F04DFC18B102280CBF47
:103AE0000120022008BD00BF08B5D0F8200201F077
:103AF00069FC08BD10B51148114C00234FF48272C7
:103B00004FF40061C4E90002C4E9023101224FF41C
:103B100000701821C4E90432C4E906010A222046D3
:103B2000C4E90833C4E90A32FFF7F0F800B910BD60
:103B3000BDE8104003485221FFF762BE003C004040
:103B4000C00C0020F09502083C4B02689A4200D05D
:103B5000704770B586B003F5FE33002500951A6CEA
:103B6000374E42F400421A641B6C4FF4E05103F4E8
:103B700000430093019101230221CDE902130322A6
:103B80000623044601A900982E48CDE9042306F037
:103B9000C3FA2D4AE368F560C6E9002540214FF4D9
:103BA0008062B1603261002B34D119460022C6E92F
:103BB0000531234872624FF48033C6E9072300F0D1
:103BC0000FFC002835D1214DE3682149A66400226D
:103BD0004FF48060C5E90012C5E90222B463286190
:103BE000EBB919460022C5E9053118486A624FF45D
:103BF0008033C5E9072300F0F3FBA8B900220521B3
:103C0000E5643320AC63FDF7CFF93320FDF708FA04
:103C100006B070BD4FF400634FF40051C6E74FF497
:103C200000634FF40051DDE70A489B21FFF7E8FDF0
:103C3000E4E708488421FFF7E3FDC4E7003C0040C7
:103C4000600C00200008024088600240000C002048
:103C500010600240F09502080D4B02689A4200D0B5
:103C600070470C4A136C10B523F4004304464FF41C
:103C7000E0511364084806F071FBA06C00F044FCAE
:103C8000E06C00F041FCBDE810403320FDF7D4B9F2
:103C9000003C004000380240000802400A4B1B680C
:103CA000013308D04FF0500383F31188BFF36F8FB7
:103CB000BFF34F8FFEE74FF0500383F31188BFF33C
:103CC0006F8FBFF34F8FFEE70000002006480068AB
:103CD000006880F3088862B661B6BFF34F8FBFF308
:103CE0006F8F00DF00BF000008ED00E0DFF80C0080
:103CF000016841F4700101607047000088ED00E048
:103D000010B44FF08073074C40F8043C21F00101DF
:103D10006FF0020340E9034140E909325DF8044BCA
:103D2000443870479D3C000800000000000000007F
:103D3000074B19680868B0E8F04F80F30988BFF3B3
:103D40006F8F4FF0000080F311887047AFF3008051
:103D5000B41600204FF0500383F31188BFF36F8F28
:103D6000BFF34F8F0B4A13680133012B136000D050
:103D700070474FF0E023D3F8043DDBB2002BF7D0BF
:103D80004FF0500383F31188BFF36F8FBFF34F8F52
:103D9000FEE700BF00000020084A136843B94FF057
:103DA000500383F31188BFF36F8FBFF34F8FFEE78C
:103DB000013B13600BB983F31188704700000020AA
:103DC000EFF30980BFF36F8F154B1A681EF0100FC9
:103DD00008BF20ED108A20E9F04F10604DF8043D37
:103DE0004FF0500080F31188BFF34F8FBFF36F8FF8
:103DF00004F0DCFE4FF0000080F3118808BC196865
:103E00000868B0E8F04F1EF0100F08BFB0EC108A41
:103E100080F30988BFF36F8F704700BFAFF3008056
:103E2000B416002008B54FF0500383F31188BFF398
:103E30006F8FBFF34F8F04F0E5FC28B14FF0E02304
:103E40004FF08052C3F8042D002383F3118808BD7E
:103E5000064B07491B68A1FB03134FF0E0229B09A7
:103E6000013B072153611161704700BFF40100203D
:103E7000D34D62104FF0E023344AD3F8001D914235
:103E80005BD0D3F8002D324B9A424DD030B5314B38
:103E9000314C1A78314883B0FF21D2B201921970A7
:103EA0001B78DBB28DF803309DF803309DF80320BA
:103EB00003F0500307211206237001600DD506227E
:103EC0009DF803305B00DBB28DF803309DF80330C2
:103ED0001B06114602F1FF32F2D4019A1D4D0B026E
:103EE0004FF0E024D2B203F4E06303602A70D4F808
:103EF000203D43F47003C4F8203DD4F8203D43F046
:103F00007043C4F8203DFFF7A3FF154B00221A6051
:103F1000FFF7ECFED4F8343F43F04043C4F8343F9D
:103F2000FFF7D4FEFFF7BAFE4FF0500383F311887A
:103F3000BFF36F8FBFF34F8FFEE74FF0500383F354
:103F40001188BFF36F8FBFF34F8FFEE771C20F4130
:103F500070C20F4100E400E01C0D0020180D00208D
:103F600000000020EFF305830F2B0ED91149124AF0
:103F70005B5C12789A4208D94FF0500383F31188A2
:103F8000BFF36F8FBFF34F8FFEE74FF0E0230B4A75
:103F9000D3F80C3D126803F4E063934208D94FF064
:103FA000500383F31188BFF36F8FBFF34F8FFEE78A
:103FB000704700BFF0E300E01C0D0020180D00204A
:103FC00010B50C480C4C4FF4E1310023C4E900015A
:103FD0000C222046C4E90233C4E90432C4E90633A2
:103FE00002F044FE00B910BDBDE8104003484E2168
:103FF000FFF706BC004C0040E00D002004960208CC
:104000003A4B02689A4200D0704770B588B00025DC
:1040100003F5F63301951A6C42F400221A641B6C06
:1040200003F400230826019301220223CDE9022391
:104030000DEB06010222032304462D480696CDE926
:104040000423019B06F068F802220223CDE9022333
:1040500027480696002203230DEB0601CDE9042331
:10406000244E06F059F8244A4FF00063C6E90023B5
:1040700030464FF480624FF48073C6E90255C6E9BA
:104080000425C6E90653C6E9085500F0A9F918BB8E
:104090001A4D1B4A2A604FF00062002366636A6073
:1040A00040214FF480622846C5E90213C5E9053373
:1040B000C5E90733B4632A616B6200F091F980B9F6
:1040C0002563002205213420AC63FCF76DFF34200A
:1040D000FCF7A6FF08B070BD0A487F21FFF790FBF0
:1040E000D6E708489121FFF78BFBE9E7004C004039
:1040F00000000240800D002040600240200D0020A2
:1041000070600240049602080D4B02689A4200D08B
:1041100070470C4A136C10B523F4002304460321A6
:104120001364094806F01AF9606B00F0EDF9206B92
:1041300000F0EAF9BDE810403420FCF77DBF00BF75
:10414000004C0040003802400000024088B108B531
:10415000D0F8143213B10023C0F8143209B1C0F8FA
:104160001012012380F8FC310270FFF70BFC0020D5
:1041700008BD0220704700BF19B1C0F8141200201A
:1041800070470220704700BF08B5FFF737FC0020DA
:1041900008BD00BF08B5D0F8143233B11B6898478A
:1041A000003818BF0120400008BD022008BD00BF34
:1041B00008B5D0F814325B689847002008BD00BFEE
:1041C00038B5044600F50275284601F00DFD94F857
:1041D0000812B4F80E22C4F8F8210123C4F8F4310F
:1041E00001F01F03012B0ED0022B06D08BB92946FC
:1041F000204601F01BFB002038BD2946204601F077
:1042000081FC002038BD2946204601F05DFC0020DD
:1042100038BD01F080012046FFF716FC002038BDB4
:1042200010B5044631B91346D0F8F421032A0DD055
:10423000002010BDD0F814329B69002BF8D090F804
:10424000FC21032AF4D19847002010BDD0E9431285
:1042500091420DD8D0F814321B6923B190F8FC219B
:10426000032A00D198472046FCF744FF002010BDE8
:10427000891A8A4228BF0A46C0F80C1192B2194620
:10428000FCF730FFD4E700BF70B5044651B91346C0
:10429000D0F8F421022A16D094F80032012B0DD068
:1042A000002070BDD0F814325B69002BF8D090F874
:1042B000FC21032AF4D19847002070BD002384F824
:1042C0000032002070BDD0E90726B24221D88369B0
:1042D000B3FBF6F506FB15355DB99E4209D8D0F85B
:1042E000F821934205D22A46FCF7E6FEC4F8F851BD
:1042F00016E0D4F81432DB681BB194F8FC21032AD1
:1043000015D02046FCF702FF94F80032012BC7D1EC
:10431000D4E7921B0D46C261194692B2FCF7CCFE5F
:104320002B462A4629462046FFF7D2FBB4E7204613
:104330009847E6E738B50022044611464025402359
:10434000FFF768FB2B460022C4F81051802120465D
:10435000FFF760FBD4F818322562012284F8FC21B3
:104360002BB1D4F8143221795B682046984700209D
:1043700038BD00BF01740020704700BF90F8FC21D9
:1043800080F8FD21042380F8FC310020704700BF35
:104390000346002093F8FD2183F8FC21704700BFFD
:1043A00090F8FC21032A01D00020704708B5D0F80E
:1043B0001432DB6903B19847002008BD0020704724
:1043C000002070470020704708B5D0F81422012162
:1043D00080F8FC11526801799047002008BD00BFA9
:1043E00038B5044601F0FAFC002C6BD02368022299
:1043F000002184F8341084F835201A6822F0010274
:1044000005461A6005E001F0E9FC431B052B37D88F
:1044100023681A68D107F6D4D4E90120E168024381
:104420000A43D4E90451A0692A430A43E1691D689B
:1044300002430A4331492940256A2A430A43616AF3
:10444000042924D01A605A6922F007021143D8B215
:104450002B4A59611038A2FB0052120929496FF307
:104460000903895CE1655F2888BF04333F228A40E5
:10447000A36500209A600123606584F8353038BD5B
:1044800003232022626584F83530184638BDD4E90C
:104490000B512943114319605969A26A21F00701A0
:1044A000114341F00401002DD1D068B9012A21D077
:1044B00032F00202CBD1EA01C9D540220123626564
:1044C00084F83530012038BDB0F5005F04D0022AF1
:1044D000F3D9032AEFD0BAE7032AB8D801A050F8DD
:1044E00022F000BFBB440008B7440008BB440008EA
:1044F000F5440008B5F1C07FA9D1DEE73F8010F098
:10450000ABAAAAAAD4AB020800282FD090F8353065
:10451000022B0246D8B228D013681549D8B21038F9
:1045200030B4A1FB004109091C68124D24F00104BC
:104530006D5C1C600021196059609960D960196137
:10454000212159615F286FF3090388BF04333F209D
:104550000021A840D56593659860516582F83410B4
:1045600082F83510084630BC70477047012070470C
:10457000ABAAAAAAD4AB020870B490F83440856DF7
:10458000012C0AD090F835404FF0010C644580F8BA
:1045900034C005D0002380F83430022070BC70474E
:1045A000022680F83560046800264665266826F4F1
:1045B0008026266063608368402B0EBFA260A160E6
:1045C000E260C26D08BFE1603F239340AB602368A7
:1045D000026C43F016032360636943F08003636158
:1045E0001AB1236843F008032360236843F00103F2
:1045F0000020236070BC704770B50446866D01F0E2
:10460000EDFB94F83530022B06D00023802284F88D
:1046100034306265012070BD23681A6822F01602EA
:104620001A605A6922F080025A61226C054632B340
:104630001A6822F008021A601A6822F001021A6051
:1046400005E001F0CBFB431B052B0FD823681B684B
:1046500013F00103F5D1E16D3F228A400121B260E0
:1046600084F8343084F83510184670BD03202022B9
:104670000023626584F8343084F8350070BDA26C84
:10468000002AD5D1D8E700BF90F83530022B03D0EF
:1046900080234365012070470268052380F8353088
:1046A000136823F00103002013607047F0B583B056
:1046B000674A876D166800230193C36D3D68082221
:1046C0009A402A42044603D001680868400778D41B
:1046D00001229A402A4203D02168496908066AD417
:1046E00004229A402A4203D02168096889075CD4D1
:1046F00010229A402A4203D021680868000741D45A
:1047000020229A402A4214D021680868C00610D599
:10471000BA6094F83520052A63D00B6813F4802F13
:104720000B687ED0190340F18980E36B0BB1204602
:104730009847636D23B3636DDA071AD5226845493C
:10474000052384F835301368A1FB061623F0010316
:10475000B60A136002E01368DB0704D5019B01333E
:10476000B3420193F7D90022012384F8342084F85E
:104770003530E36C23B1204603B0BDE8F040184764
:1047800003B0F0BDBA600A6812F4802F0A6822D123
:10479000D20503D40A6822F008020A60226C002ABB
:1047A000AED020469047E36DAAE7BA60626D42F052
:1047B000040262659CE7BA60626D42F002026265C3
:1047C0008EE7086820F004000860BA60626D42F06D
:1047D000010262657CE71103E0D5A26C002AE0D1FA
:1047E0008EE70A6822F016020A604A6922F0800207
:1047F0004A61226C3AB30A6822F008020A603F223A
:1048000002FA03F3216DBB600022012384F83420F7
:1048100084F835300029B3D0204603B0BDE8F0401D
:10482000084713F4807380D10A6822F010020A60EE
:10483000012284F8343084F8352076E7636C002B4D
:104840007FF475AF75E7A26C002AD4D1D7E700BF1B
:10485000F4010020B5814E1B10B4154B1A461B689D
:104860008342FBD35468416802EB040C604513D0CB
:104870004418A34206D00360824218BF10605DF85E
:10488000044B70470B4C2468A342F4D0D3E90034A6
:10489000214403604160EFE7214450188342516096
:1048A000EDD1044800688342E9D01046EEE700BF2E
:1048B000300E00202C0E00202DE9F8433E4E044619
:1048C00003F08AFF3368002B58D03C4B1D682C4204
:1048D0002ED16CB304F1080160071CBF21F0070161
:1048E000083129B3DFF8E880D8F800708F421FD371
:1048F0003348046803E0236823B120461C466268FD
:104900008A42F8D33368A34212D0531A2668D0F8EB
:1049100000900660102B16D9601842070ED04FF099
:10492000500383F31188BFF36F8FBFF34F8FFEE700
:1049300004F0A8F800263046BDE8F88343606160C3
:10494000FFF78AFF62681F4B1968BF1A8F4238BF92
:104950001F602A430023C4E9003209F10806C8F8A1
:10496000007004F08FF87307E5D04FF0500383F325
:104970001188BFF36F8FBFF34F8FFEE7124B134ABF
:1049800010490E4F5D0718BF07330D4D22F0070287
:1049900018BF23F007032B601846D31A0B600C498D
:1049A00032600B60002169604FF00045C2E90011E0
:1049B0003D60C0E900238AE72C0E0020200E002075
:1049C000300E0020240E002000000010F8FF001020
:1049D000280E0020D0B11A4A50F8043C1268134245
:1049E0000BD050F8081C91B14FF0500383F311889D
:1049F000BFF36F8FBFF34F8FFEE74FF0500383F38A
:104A00001188BFF36F8FBFF34F8FFEE7704700B57C
:104A100023EA020383B040F8043C019003F0DCFE7B
:104A2000084A0198116850F8043C08380B44136098
:104A3000FFF712FF03B05DF804EB04F023B800BFEA
:104A4000200E0020280E0020014B1868704700BF80
:104A5000240E00200020704708B509681CF036FDC0
:104A6000002008BD08B50C490C480123002203F0C2
:104A7000E1F90B490948012203F0F0F90323094940
:104A80000648002203F0D6F907490448032203F040
:104A9000E5F9002008BD00BF780E00207812002044
:104AA000F80E0020380E0020B80E0020212806D174
:104AB0004FF4E1300022082308608A808B710020C7
:104AC000704700BF402923D8134B012A70B5D3F893
:104AD00018320D46144618D0032A1BD10F4E5C33F2
:104AE0001B7A83B92A46014630461FF0CEFE314676
:104AF00023462A46084803F09DF921460648BDE8AA
:104B0000704003F0BBB9012070BD054E4433E7E7A8
:104B100002207047022070BD78120020380E00205D
:104B2000780E0020002867D0F0B5032305468BB02F
:104B30002C4680F8B933FEF767FE2868FCF790FF33
:104B400054F810EBA446BCE80F006F460FC7BCE852
:104B50000F000FC79CE8030087E803002E1D96E8AE
:104B60000E007046FCF71AFF00212868FCF780FF52
:104B700000212B462A460127084682F83810D187A3
:104B800001310F29C2E9100082F8397082F83B0028
:104B9000D06402F11C02F0D100222F68114683F884
:104BA000F821DA8707EB820001320F2AC3E980116E
:104BB00083F8F91183F8FB11C3F80C12C0F8041143
:104BC00003F11C03EBD10FCCEC46ACE80F000FCC8B
:104BD000ACE80F0094E803008CE80300384696E840
:104BE0000E00FCF75FFF0123286885F8B933FDF755
:104BF000DFFA00200BB0F0BD0120704790F8B83309
:104C0000012B0FD010B504460123006884F8B83397
:104C1000FDF7C0FA2068FCF71BFF002384F8B833C7
:104C2000184610BD022070472DE9F04FD0F80090D3
:104C300089B004464846FDF7F3FA10B109B0BDE863
:104C4000F08F05462068FDF7C1FA0028F6D02068ED
:104C5000FDF7BCFA8607236803D55A6902F0020201
:104C60005A611846FDF7B2FA000300F12F814FF0A8
:104C700000082068FDF7AAFA4003D4F800E000F12C
:104C8000BF807046FDF7A2FA0028C0F22382206898
:104C9000FDF79CFA03054DD42068FDF797FA03460B
:104CA000DE0420686FD4FDF791FA0346990420686A
:104CB0004BD4FDF78BFAC206236815D59A6922F00A
:104CC00010029A61D9F8205005F4F012B2F5802F45
:104CD00005F00F0600F00D82B2F5402F00F086813E
:104CE0009A6942F010029A611846FDF76FFA0707B9
:104CF00000F156812068FDF769FAC60200F145818E
:104D00002068FDF763FA850200F134812068FDF721
:104D10005DFA400000F125812068FDF757FA410750
:104D20008CD523685D686A0700F104825A682A43BB
:104D30005A6083E7D9F80838DF0700F1F781206867
:104D4000436903F400634361A7E7FDF76DFA206848
:104D5000C36823F47053C360FCF77AFF002840F067
:104D600033812268E0604FF400736361D36843F4D9
:104D70001053D3602046FEF7C9FD2068436903F451
:104D80000053436195E7D9F8043823F0010310215B
:104D9000C9F80438FCF74AFF616809F5006651B1AB
:104DA00009F51063FF2201358D429A60C3F808228D
:104DB00003F12003F7D14FF0FF33B361F36943F000
:104DC0000113F361236B002B40F0F380736943F010
:104DD0000B037361336943F00B033361D9F8003877
:104DE000217C206823F4FE63C9F8003804F56F7253
:104DF000FDF734FA2068436903F48053436152E7B6
:104E00007046FDF7EFF9D4F800E0804600283FF443
:104E100038AF002309F5106BC8462646824603903A
:104E2000049599461AF0010F0AD14FEA5A0A1AF06E
:104E3000010F09F1010906F11C060BF1200BF4D05A
:104E40005FFA89F529467046FDF7DCF9C107074688
:104E500019D5D8F83428012101FA09F022EA000214
:104E6000C8F834282269CBF808108A4203D1D6E961
:104E700010120A44726429462046FEF739FD216962
:104E8000012900F06B813A0744BF0822CBF80820C3
:104E9000FB0644BF1023CBF80830780644BF4023FC
:104EA000CBF80830B90744BF0223CBF808303A06E4
:104EB000D4F800E000F1C2805FEA5A0A00F0A9804D
:104EC00009F101091C360BF1200BABE72068FDF757
:104ED00081F9824600283FF4CAAE049509F530678F
:104EE000A3464FF0000806462546F10708D4760889
:104EF000F10708F1010807F120070BF11C0BF6D5AB
:104F00005FFA88F128680391FDF774F9C207044637
:104F100019D52A69039901239A42BB600CD13A69D9
:104F2000DBF80002C2F31202821ACBF81022DBF87F
:104F300004220244CBF804222846FEF7CFFC29695C
:104F4000012900F0FC80230772D4E40644BF10233B
:104F5000BB60760865D008F1010820370BF11C0B07
:104F6000C3E72046FEF706FD2068436903F080434F
:104F70004361D2E620465FFA88F1FEF7F3FC206831
:104F8000436903F400134361C1E620465FFA88F1E8
:104F9000FEF7ECFC2068436903F480134361B0E63C
:104FA0002046FEF7AFFC2068436903F00803436125
:104FB000A1E6D6F8843043F00B03C6F88430736C56
:104FC00043F00B03736409E703224023E26063614B
:104FD00001F0A4FC944B954A21680344934200F2EB
:104FE000CB80CB6843F47053CB60C3E6082204F552
:104FF0006F714846C6EBC606FDF774F804EB8601F0
:10500000C5F30A12D1F810321A442368C1F81022ED
:1050100066E6C146DDE90385B8FA88F3C3F12008E6
:105020002FE6BAFA8AFA2C46CAF12008049D20E637
:105030002846FEF721FC0822BA6086E70EF51062CA
:1050400002EB4913D6E913129869CDF81CE080B23F
:105050000590306C8F1A874228BF0746059807F1E4
:10506000030CB0EB9C0F27D9CDE905BAF2469B465D
:105070001AE0336C994228BF1946237C00930F46EF
:10508000BBB2716C2A465046FDF716F8326D736C50
:105090003A443B4432657364DBF81830F91C9BB228
:1050A000B3EB910F04D9F16C8A42A1EB0201E0D37A
:1050B000DDE905BAD4F800E0002F7FF4FDAE079BD0
:1050C0000120D3F8341800FA09F021EA0001C3F8EE
:1050D0003418F1E6D9F8043823F00103C9F804388C
:1050E0002046FEF73BFC2068436903F00043436120
:1050F000CEE547F6F07215423FF4F2ADC6EBC606B8
:1051000004EB8606C5F30A12D6F804124846154683
:10511000FCF7E8FFD6F804322B44C6F80432D6F880
:1051200010321D442368C6F81052D9E52046FEF718
:10513000FDFB04E62046FEF721FC2368F6E5B8F106
:10514000000F7FF400AFD5F80C22002A7FF4FBAEED
:10515000286805F56F72FDF781F8F4E6B9F1000FE4
:105160007FF491AEE26C002A7FF48DAE206804F5E6
:105170006F72FDF773F886E62D4B2E4A0344934277
:1051800004D8CB6843F46053CB60F3E52A4AA0F51A
:105190007403A3F51053934204D8CB6843F45053DF
:1051A000CB60E7E5254AA0F18373A3F5E74393427B
:1051B00004D2CB6843F44053CB60DBE5204B214A5B
:1051C0000344934204D8CB6843F43053CB60D1E519
:1051D0001D4B1E4A0344934204D2CB6843F4205330
:1051E000CB60C7E51A4B1B4A0344934204D2CB68F9
:1051F00043F41053CB60BDE5174AA0F1B773A3F594
:105200005853934204D2CB6843F40053CB60B1E5CA
:10521000124B134A03449342CB6834BF43F4E05328
:1052200043F4C053CB60A5E5405327FFFF340C0087
:10523000401E1BFF3F420F007F4F120020D613007D
:1052400060B6E5FE5FE3160000D3CEFE40771B009C
:10525000C05BB3FEC091210020753800E05459FEB8
:10526000E09C410090F8B833012B0CD010B50446F7
:105270000123006884F8B833FCF77CFF002384F82E
:10528000B833184610BD0220704700BF10B5044661
:10529000080624D4C1EBC10C4FEA8C0C04EB0C00C3
:1052A00080F8F811C0F800220CF5FC7100222144AE
:1052B00080F8FB3180F8F921022B04BF00230B7129
:1052C00094F8B833012B21D0012384F8B833206837
:1052D000FCF7DCFC002384F8B833184610BD01F05D
:1052E0007F0ECEEBCE0C4FEA8C0C04EB0C000CF1D5
:1052F000380C0264012204EB0C0180F838E080F8DD
:105300003B30A0F83EE080F83920D5E7022010BD00
:105310000B4601F07F02090610B5044619D4C3EB11
:10532000C30100EB8101DB0981F8F82181F8F93133
:1053300094F8B833012B01F5FC7119D0012384F8DE
:10534000B8332068FCF7E6FC002384F8B83318462D
:1053500010BDC2EBC20100EB8101DB0981F83820EE
:1053600081F8393094F8B833012B01F13801E5D1D7
:10537000022010BD10B501F07F04C4EBC40C4FEA4D
:105380008C0C00EB0C0E0CF5FC7CCEF80C320023E0
:105390008EF8F8418EF8F931CEF810320369CEF864
:1053A0000422012B00EB0C0108BFCEF80822006894
:1053B000DAB21CB9FCF700FE002010BDFCF70AFDB4
:1053C000002010BD01F00F01C1EBC10100EB810015
:1053D000B0F81002704700BF10B501F07F04C4EBB5
:1053E000C40C4FEA8C0C00EB0C0E0CF1380CCEF810
:1053F0004C300023CEF8503001238EF838408EF820
:1054000039300369CEF84420012B00EB0C0108BFB2
:10541000CEF848200068DAB21CB9FCF7CDFD0020B8
:1054200010BDFCF7D7FC002010BD00BF0A0638B540
:105430000B46044601F07F0518D4C1EBC10100EB17
:10544000810101F5FC710122DB098A700D704B703E
:1054500094F8B833934216D0206884F8B823FCF748
:1054600055FE4DB1002084F8B80338BDC5EBC50129
:1054700000EB81013831E6E7217C206804F56F728A
:10548000FCF7ECFEEEE7022038BD00BF38B501F0B6
:105490007F020B460906044618D4C3EBC30100EB98
:1054A000810101F5FC71DB0900258D700A704B70DC
:1054B00094F8B833012B0FD00123206884F8B83357
:1054C000FCF740FE84F8B853284638BDC2EBC20151
:1054D00000EB81013831E6E7022038BD30B52548C0
:1054E000254C4FF480318FB0C4E9000123480021DE
:1054F00000230122C4E90A012046A3602361A361BD
:105500002362E360E2612363626104F0E7FB08BBAE
:10551000062401250023184802936946CDE9004579
:1055200004F052FD08BB012206210023CDE905123B
:105530004FF480154FF480340F48099205A9CDE946
:105540000C45CDE90A330793089302F0F3FC30B918
:105550000FB030BD0A485E21FEF752F9D8E708487F
:105560007821FEF74DF90FB030BD05486821FEF7F0
:1055700047F9D8E700200140281000200100000F63
:105580001C96020830B52648264C4FF480318FB067
:10559000C4E900014FF060604FF080510023012208
:1055A000C4E90A012046A3602361A3612362E3608A
:1055B000E2612363626104F091FB08BB0D240125C5
:1055C0000023184802936946CDE9004504F0FCFC2D
:1055D00008BB01220A210023CDE905124FF48015F2
:1055E0004FF480340F48099205A9CDE90C45CDE967
:1055F0000A330793089302F09DFC30B90FB030BD19
:1056000009489221FEF7FCF8D8E70748AC21FEF7DD
:10561000F7F80FB030BD04489C21FEF7F1F8D8E749
:1056200000210140E00F00201C96020830B52648FA
:10563000264C4FF480318FB0C4E900014FF0606018
:105640004FF0805100230122C4E90A012046A360E3
:105650002361A3612362E360E2612363626104F07A
:105660003DFB08BB0C240125002318480293694622
:10567000CDE9004504F0A8FC08BB01220B21002362
:10568000CDE905124FF480154FF480340F4809928C
:1056900005A9CDE90C45CDE90A330793089302F03B
:1056A00049FC30B90FB030BD0948C621FEF7A8F853
:1056B000D8E70748E021FEF7A3F80FB030BD044853
:1056C000D021FEF79DF8D8E700220140980F002076
:1056D0001C9602080000000070B54B4A0368934214
:1056E0008AB007D0494A934248D0494A93426DD084
:1056F0000AB070BD0026474B01965A6C464D42F4E5
:1057000080725A645B6C069603F4807301932F22B7
:10571000032304A904464148CDE90423019B04F076
:10572000FBFC702203233E48069604A9CDE904231E
:1057300004F0F2FC3B4A6E624FF48063C5E9002638
:105740002B614FF400624FF40053C5E9052328464E
:105750004FF48073C5E90266C5E90736FEF740FEDF
:10576000002846D1A563002205211220AC63FBF777
:105770001BFC1220FBF754FC0AB070BD254B2748D8
:10578000002402945A6C42F400725A645B6C0694D2
:105790009FED1B7B03F40073029304A9029B8DED24
:1057A000047B04F0B9FC70220323CDE904231C48D8
:1057B00004A9069404F0B0FC224605211220FBF750
:1057C000F3FB1220FBF72CFC0AB070BD114B002438
:1057D00003945A6C42F480625A645B6C03F48063F5
:1057E0000F2003210393CDE90401039B0B4804A977
:1057F000DFE70D484FF48A71FEF702F8B2E700BF09
:105800002F000000030000000020014000210140A3
:105810000022014000380240380F002000080240FA
:1058200000000240106402401C96020830B54B781C
:1058300083B00D460446092B0BD8DFE803F0364849
:105840000A570A05630A79158B8813B9CB88002B90
:105850007BD080212046FEF7F7F800212046FEF796
:10586000F3F8002003B030BD8978964D01292970E6
:10587000EFD890F8FC31022B7ED0032BE9D1002920
:1058800000F00E814168012909D0C9B2FEF790FCF1
:10589000297861602046FEF77DFC0228D9D0204699
:1058A000FBF728FC002003B030BD90F8FC31023B30
:1058B000012BCED8D0F804320146002B0CBF0123B7
:1058C000032341F80C3F0222FBF7E8FBC9E790F8FD
:1058D000FC31023B012BBCD84B88012BC1D1D0F845
:1058E000143200229B68C0F8042207E04B88012B89
:1058F000B7D1D0F81422C0F8043293682946204664
:105900009847CCE749880B0A013B062BA1D801A296
:1059100052F823F01B5A0008035A0008F3590008F4
:105920005358000853580008DD5900089F590008D3
:10593000CA88012A8DD190F8FC31022B28D0032B84
:1059400087D1011DFBF7AAFB8BE790F8FC31032BF5
:105950003FF47FAF4D8805F07F0580F8FE51294662
:10596000FEF79EF82046FBF7C5FB002D00F08D806A
:10597000022384F8FC3174E7002990D0012103232D
:10598000416080F8FC31FEF705FC022887D160E712
:105990000146002341F8083FFBF780FB61E7037CE9
:1059A000002B7FF456AFD0F814320DF106001B6BBC
:1059B000984707234370BDF80630002B3FF451AFE2
:1059C000EA88002A3FF44DAF9A4228BF1A460146A2
:1059D0002046ADF80620FBF761FB42E7037C002B75
:1059E0007FF437AFD0F814320DF106005B6B9847A7
:1059F000E1E7C9B205295DD8DFE801F0271F1737B5
:105A00002F3F027CD0F81432002A42D19B6A0DF15C
:105A10000600984702234370CDE7D0F81032007C8F
:105A20001B680DF106019847C5E7D0F81032007CDD
:105A3000DB680DF106019847BDE7D0F81032007C15
:105A40009B680DF106019847B5E7D0F81032007C4D
:105A50005B680DF106019847ADE7D0F81032007C85
:105A60005B690DF106019847A5E7D0F81032007C7C
:105A70001B690DF1060198479DE7D0F81032007CB4
:105A80009B690DF10601984795E7012384F8FC31E5
:105A9000E7E6DB6A0DF106009847022343708AE7C8
:105AA000022380F8FC314160FEF782FB2046FBF7C1
:105AB00021FBD6E6D0F814320DF106029B6B984715
:105AC00079E700BF7010002038B590F8FC31032B47
:105AD00004460DD10B79012B0D4609D8D0F81432AC
